{
  "_format": "hh-sol-artifact-1",
  "contractName": "EduFund",
  "sourceName": "contracts/EduFund.sol",
  "abi": [
    {
      "anonymous": false,
      "inputs": [
        {
          "indexed": false,
          "internalType": "uint256",
          "name": "fundraiserId",
          "type": "uint256"
        },
        {
          "indexed": true,
          "internalType": "address",
          "name": "donor",
          "type": "address"
        },
        {
          "indexed": false,
          "internalType": "uint256",
          "name": "amount",
          "type": "uint256"
        }
      ],
      "name": "DonationReceived",
      "type": "event"
    },
    {
      "anonymous": false,
      "inputs": [
        {
          "indexed": false,
          "internalType": "uint256",
          "name": "fundraiserId",
          "type": "uint256"
        },
        {
          "indexed": false,
          "internalType": "string",
          "name": "name",
          "type": "string"
        },
        {
          "indexed": false,
          "internalType": "uint256",
          "name": "goal",
          "type": "uint256"
        },
        {
          "indexed": true,
          "internalType": "address",
          "name": "creator",
          "type": "address"
        },
        {
          "indexed": true,
          "internalType": "address",
          "name": "beneficiary",
          "type": "address"
        }
      ],
      "name": "FundraiserCreated",
      "type": "event"
    },
    {
      "anonymous": false,
      "inputs": [
        {
          "indexed": false,
          "internalType": "uint256",
          "name": "fundraiserId",
          "type": "uint256"
        },
        {
          "indexed": false,
          "internalType": "uint256",
          "name": "amount",
          "type": "uint256"
        },
        {
          "indexed": true,
          "internalType": "address",
          "name": "beneficiary",
          "type": "address"
        }
      ],
      "name": "FundsWithdrawn",
      "type": "event"
    },
    {
      "inputs": [
        {
          "internalType": "string",
          "name": "_name",
          "type": "string"
        },
        {
          "internalType": "string",
          "name": "_description",
          "type": "string"
        },
        {
          "internalType": "uint256",
          "name": "_goal",
          "type": "uint256"
        },
        {
          "internalType": "address",
          "name": "_beneficiary",
          "type": "address"
        }
      ],
      "name": "createFundraiser",
      "outputs": [],
      "stateMutability": "nonpayable",
      "type": "function"
    },
    {
      "inputs": [
        {
          "internalType": "uint256",
          "name": "fundraiserId",
          "type": "uint256"
        }
      ],
      "name": "donate",
      "outputs": [],
      "stateMutability": "payable",
      "type": "function"
    },
    {
      "inputs": [],
      "name": "fundraiserCount",
      "outputs": [
        {
          "internalType": "uint256",
          "name": "",
          "type": "uint256"
        }
      ],
      "stateMutability": "view",
      "type": "function"
    },
    {
      "inputs": [
        {
          "internalType": "uint256",
          "name": "",
          "type": "uint256"
        }
      ],
      "name": "fundraisers",
      "outputs": [
        {
          "internalType": "string",
          "name": "name",
          "type": "string"
        },
        {
          "internalType": "string",
          "name": "description",
          "type": "string"
        },
        {
          "internalType": "uint256",
          "name": "goal",
          "type": "uint256"
        },
        {
          "internalType": "uint256",
          "name": "amountRaised",
          "type": "uint256"
        },
        {
          "internalType": "address",
          "name": "creator",
          "type": "address"
        },
        {
          "internalType": "address",
          "name": "beneficiary",
          "type": "address"
        },
        {
          "internalType": "bool",
          "name": "isClosed",
          "type": "bool"
        }
      ],
      "stateMutability": "view",
      "type": "function"
    },
    {
      "inputs": [],
      "name": "getContractBalance",
      "outputs": [
        {
          "internalType": "uint256",
          "name": "",
          "type": "uint256"
        }
      ],
      "stateMutability": "view",
      "type": "function"
    },
    {
      "inputs": [
        {
          "internalType": "uint256",
          "name": "fundraiserId",
          "type": "uint256"
        }
      ],
      "name": "getFundraiser",
      "outputs": [
        {
          "components": [
            {
              "internalType": "string",
              "name": "name",
              "type": "string"
            },
            {
              "internalType": "string",
              "name": "description",
              "type": "string"
            },
            {
              "internalType": "uint256",
              "name": "goal",
              "type": "uint256"
            },
            {
              "internalType": "uint256",
              "name": "amountRaised",
              "type": "uint256"
            },
            {
              "internalType": "address",
              "name": "creator",
              "type": "address"
            },
            {
              "internalType": "address",
              "name": "beneficiary",
              "type": "address"
            },
            {
              "internalType": "bool",
              "name": "isClosed",
              "type": "bool"
            }
          ],
          "internalType": "struct EduFund.Fundraiser",
          "name": "",
          "type": "tuple"
        }
      ],
      "stateMutability": "view",
      "type": "function"
    },
    {
      "inputs": [
        {
          "internalType": "uint256",
          "name": "fundraiserId",
          "type": "uint256"
        }
      ],
      "name": "withdrawFunds",
      "outputs": [],
      "stateMutability": "nonpayable",
      "type": "function"
    }
  ],
  "bytecode": "0x608060405234801561001057600080fd5b506001600081905550611c13806100286000396000f3fe6080604052600436106100705760003560e01c806389f526411161004e57806389f52641146100f4578063a82000981461011d578063f14faf6f1461015a578063f38f72fb1461017657610070565b8063155dd5ee1461007557806337cd09401461009e5780636f9fb98a146100c9575b600080fd5b34801561008157600080fd5b5061009c60048036038101906100979190610e93565b6101b9565b005b3480156100aa57600080fd5b506100b3610549565b6040516100c09190610ecf565b60405180910390f35b3480156100d557600080fd5b506100de61054f565b6040516100eb9190610ecf565b60405180910390f35b34801561010057600080fd5b5061011b6004803603810190610116919061108e565b610557565b005b34801561012957600080fd5b50610144600480360381019061013f9190610e93565b6107fb565b6040516101519190611288565b60405180910390f35b610174600480360381019061016f9190610e93565b610a6b565b005b34801561018257600080fd5b5061019d60048036038101906101989190610e93565b610be6565b6040516101b09796959493929190611312565b60405180910390f35b6101c1610d85565b6000600160008381526020019081526020016000209050600073ffffffffffffffffffffffffffffffffffffffff168160040160009054906101000a900473ffffffffffffffffffffffffffffffffffffffff1673ffffffffffffffffffffffffffffffffffffffff160361026b576040517f08c379a0000000000000000000000000000000000000000000000000000000008152600401610262906113db565b60405180910390fd5b8060050160009054906101000a900473ffffffffffffffffffffffffffffffffffffffff1673ffffffffffffffffffffffffffffffffffffffff163373ffffffffffffffffffffffffffffffffffffffff16146102fd576040517f08c379a00000000000000000000000000000000000000000000000000000000081526004016102f49061146d565b60405180910390fd5b806002015481600301541015610348576040517f08c379a000000000000000000000000000000000000000000000000000000000815260040161033f906114d9565b60405180910390fd5b6000816003015490506000826003018190555081600201548260030154106103f7578160050160009054906101000a900473ffffffffffffffffffffffffffffffffffffffff1673ffffffffffffffffffffffffffffffffffffffff166108fc83600301549081150290604051600060405180830381858888f193505050501580156103d8573d6000803e3d6000fd5b5060018260050160146101000a81548160ff0219169083151502179055505b60008260050160009054906101000a900473ffffffffffffffffffffffffffffffffffffffff1673ffffffffffffffffffffffffffffffffffffffff16826040516104419061152a565b60006040518083038185875af1925050503d806000811461047e576040519150601f19603f3d011682016040523d82523d6000602084013e610483565b606091505b50509050806104c7576040517f08c379a00000000000000000000000000000000000000000000000000000000081526004016104be9061158b565b60405180910390fd5b8260050160009054906101000a900473ffffffffffffffffffffffffffffffffffffffff1673ffffffffffffffffffffffffffffffffffffffff167ff3b5906e5672f3e524854103bcafbbdba80dbdfeca2c35e116127b1060a6831885846040516105339291906115ab565b60405180910390a2505050610546610dd4565b50565b60025481565b600047905090565b6000821161059a576040517f08c379a000000000000000000000000000000000000000000000000000000000815260040161059190611620565b60405180910390fd5b600073ffffffffffffffffffffffffffffffffffffffff168173ffffffffffffffffffffffffffffffffffffffff1603610609576040517f08c379a00000000000000000000000000000000000000000000000000000000081526004016106009061168c565b60405180910390fd5b6040518060e00160405280858152602001848152602001838152602001600081526020013373ffffffffffffffffffffffffffffffffffffffff1681526020018273ffffffffffffffffffffffffffffffffffffffff16815260200160001515815250600160006002548152602001908152602001600020600082015181600001908161069691906118b8565b5060208201518160010190816106ac91906118b8565b50604082015181600201556060820151816003015560808201518160040160006101000a81548173ffffffffffffffffffffffffffffffffffffffff021916908373ffffffffffffffffffffffffffffffffffffffff16021790555060a08201518160050160006101000a81548173ffffffffffffffffffffffffffffffffffffffff021916908373ffffffffffffffffffffffffffffffffffffffff16021790555060c08201518160050160146101000a81548160ff0219169083151502179055509050508073ffffffffffffffffffffffffffffffffffffffff163373ffffffffffffffffffffffffffffffffffffffff167ffb488a83718f074929f513027d7df1d4c09b895d3b4ef51b57f31b1e75c77ede60025487866040516107d59392919061198a565b60405180910390a3600260008154809291906107f0906119f7565b919050555050505050565b610803610dde565b6002548210610847576040517f08c379a000000000000000000000000000000000000000000000000000000000815260040161083e906113db565b60405180910390fd5b600160008381526020019081526020016000206040518060e0016040529081600082018054610875906116db565b80601f01602080910402602001604051908101604052809291908181526020018280546108a1906116db565b80156108ee5780601f106108c3576101008083540402835291602001916108ee565b820191906000526020600020905b8154815290600101906020018083116108d157829003601f168201915b50505050508152602001600182018054610907906116db565b80601f0160208091040260200160405190810160405280929190818152602001828054610933906116db565b80156109805780601f1061095557610100808354040283529160200191610980565b820191906000526020600020905b81548152906001019060200180831161096357829003601f168201915b5050505050815260200160028201548152602001600382015481526020016004820160009054906101000a900473ffffffffffffffffffffffffffffffffffffffff1673ffffffffffffffffffffffffffffffffffffffff1673ffffffffffffffffffffffffffffffffffffffff1681526020016005820160009054906101000a900473ffffffffffffffffffffffffffffffffffffffff1673ffffffffffffffffffffffffffffffffffffffff1673ffffffffffffffffffffffffffffffffffffffff1681526020016005820160149054906101000a900460ff1615151515815250509050919050565b610a73610d85565b6002548110610ab7576040517f08c379a0000000000000000000000000000000000000000000000000000000008152600401610aae906113db565b60405180910390fd5b60003411610afa576040517f08c379a0000000000000000000000000000000000000000000000000000000008152600401610af190611ab1565b60405180910390fd5b6001600082815260200190815260200160002060050160149054906101000a900460ff1615610b5e576040517f08c379a0000000000000000000000000000000000000000000000000000000008152600401610b5590611b1d565b60405180910390fd5b34600160008381526020019081526020016000206003016000828254610b849190611b3d565b925050819055503373ffffffffffffffffffffffffffffffffffffffff167f0b5b4c52969ff7329ecf7ee536409fda87812b15a8622bc6e8cdeab3aee14a268234604051610bd39291906115ab565b60405180910390a2610be3610dd4565b50565b6001602052806000526040600020600091509050806000018054610c09906116db565b80601f0160208091040260200160405190810160405280929190818152602001828054610c35906116db565b8015610c825780601f10610c5757610100808354040283529160200191610c82565b820191906000526020600020905b815481529060010190602001808311610c6557829003601f168201915b505050505090806001018054610c97906116db565b80601f0160208091040260200160405190810160405280929190818152602001828054610cc3906116db565b8015610d105780601f10610ce557610100808354040283529160200191610d10565b820191906000526020600020905b815481529060010190602001808311610cf357829003601f168201915b5050505050908060020154908060030154908060040160009054906101000a900473ffffffffffffffffffffffffffffffffffffffff16908060050160009054906101000a900473ffffffffffffffffffffffffffffffffffffffff16908060050160149054906101000a900460ff16905087565b600260005403610dca576040517f08c379a0000000000000000000000000000000000000000000000000000000008152600401610dc190611bbd565b60405180910390fd5b6002600081905550565b6001600081905550565b6040518060e0016040528060608152602001606081526020016000815260200160008152602001600073ffffffffffffffffffffffffffffffffffffffff168152602001600073ffffffffffffffffffffffffffffffffffffffff1681526020016000151581525090565b6000604051905090565b600080fd5b600080fd5b6000819050919050565b610e7081610e5d565b8114610e7b57600080fd5b50565b600081359050610e8d81610e67565b92915050565b600060208284031215610ea957610ea8610e53565b5b6000610eb784828501610e7e565b91505092915050565b610ec981610e5d565b82525050565b6000602082019050610ee46000830184610ec0565b92915050565b600080fd5b600080fd5b6000601f19601f8301169050919050565b7f4e487b7100000000000000000000000000000000000000000000000000000000600052604160045260246000fd5b610f3d82610ef4565b810181811067ffffffffffffffff82111715610f5c57610f5b610f05565b5b80604052505050565b6000610f6f610e49565b9050610f7b8282610f34565b919050565b600067ffffffffffffffff821115610f9b57610f9a610f05565b5b610fa482610ef4565b9050602081019050919050565b82818337600083830152505050565b6000610fd3610fce84610f80565b610f65565b905082815260208101848484011115610fef57610fee610eef565b5b610ffa848285610fb1565b509392505050565b600082601f83011261101757611016610eea565b5b8135611027848260208601610fc0565b91505092915050565b600073ffffffffffffffffffffffffffffffffffffffff82169050919050565b600061105b82611030565b9050919050565b61106b81611050565b811461107657600080fd5b50565b60008135905061108881611062565b92915050565b600080600080608085870312156110a8576110a7610e53565b5b600085013567ffffffffffffffff8111156110c6576110c5610e58565b5b6110d287828801611002565b945050602085013567ffffffffffffffff8111156110f3576110f2610e58565b5b6110ff87828801611002565b935050604061111087828801610e7e565b925050606061112187828801611079565b91505092959194509250565b600081519050919050565b600082825260208201905092915050565b60005b8381101561116757808201518184015260208101905061114c565b60008484015250505050565b600061117e8261112d565b6111888185611138565b9350611198818560208601611149565b6111a181610ef4565b840191505092915050565b6111b581610e5d565b82525050565b6111c481611050565b82525050565b60008115159050919050565b6111df816111ca565b82525050565b600060e08301600083015184820360008601526112028282611173565b9150506020830151848203602086015261121c8282611173565b915050604083015161123160408601826111ac565b50606083015161124460608601826111ac565b50608083015161125760808601826111bb565b5060a083015161126a60a08601826111bb565b5060c083015161127d60c08601826111d6565b508091505092915050565b600060208201905081810360008301526112a281846111e5565b905092915050565b600082825260208201905092915050565b60006112c68261112d565b6112d081856112aa565b93506112e0818560208601611149565b6112e981610ef4565b840191505092915050565b6112fd81611050565b82525050565b61130c816111ca565b82525050565b600060e082019050818103600083015261132c818a6112bb565b9050818103602083015261134081896112bb565b905061134f6040830188610ec0565b61135c6060830187610ec0565b61136960808301866112f4565b61137660a08301856112f4565b61138360c0830184611303565b98975050505050505050565b7f46756e6472616973657220646f6573206e6f7420657869737400000000000000600082015250565b60006113c56019836112aa565b91506113d08261138f565b602082019050919050565b600060208201905081810360008301526113f4816113b8565b9050919050565b7f4f6e6c79207468652062656e65666963696172792063616e207769746864726160008201527f7700000000000000000000000000000000000000000000000000000000000000602082015250565b60006114576021836112aa565b9150611462826113fb565b604082019050919050565b600060208201905081810360008301526114868161144a565b9050919050565b7f476f616c206e6f74206d65742079657400000000000000000000000000000000600082015250565b60006114c36010836112aa565b91506114ce8261148d565b602082019050919050565b600060208201905081810360008301526114f2816114b6565b9050919050565b600081905092915050565b50565b60006115146000836114f9565b915061151f82611504565b600082019050919050565b600061153582611507565b9150819050919050565b7f5472616e73666572206661696c65640000000000000000000000000000000000600082015250565b6000611575600f836112aa565b91506115808261153f565b602082019050919050565b600060208201905081810360008301526115a481611568565b9050919050565b60006040820190506115c06000830185610ec0565b6115cd6020830184610ec0565b9392505050565b7f476f616c206d7573742062652067726561746572207468616e207a65726f0000600082015250565b600061160a601e836112aa565b9150611615826115d4565b602082019050919050565b60006020820190508181036000830152611639816115fd565b9050919050565b7f496e76616c69642062656e656669636961727920616464726573730000000000600082015250565b6000611676601b836112aa565b915061168182611640565b602082019050919050565b600060208201905081810360008301526116a581611669565b9050919050565b7f4e487b7100000000000000000000000000000000000000000000000000000000600052602260045260246000fd5b600060028204905060018216806116f357607f821691505b602082108103611706576117056116ac565b5b50919050565b60008190508160005260206000209050919050565b60006020601f8301049050919050565b600082821b905092915050565b60006008830261176e7fffffffffffffffffffffffffffffffffffffffffffffffffffffffffffffffff82611731565b6117788683611731565b95508019841693508086168417925050509392505050565b6000819050919050565b60006117b56117b06117ab84610e5d565b611790565b610e5d565b9050919050565b6000819050919050565b6117cf8361179a565b6117e36117db826117bc565b84845461173e565b825550505050565b600090565b6117f86117eb565b6118038184846117c6565b505050565b5b818110156118275761181c6000826117f0565b600181019050611809565b5050565b601f82111561186c5761183d8161170c565b61184684611721565b81016020851015611855578190505b61186961186185611721565b830182611808565b50505b505050565b600082821c905092915050565b600061188f60001984600802611871565b1980831691505092915050565b60006118a8838361187e565b9150826002028217905092915050565b6118c18261112d565b67ffffffffffffffff8111156118da576118d9610f05565b5b6118e482546116db565b6118ef82828561182b565b600060209050601f8311600181146119225760008415611910578287015190505b61191a858261189c565b865550611982565b601f1984166119308661170c565b60005b8281101561195857848901518255600182019150602085019450602081019050611933565b868310156119755784890151611971601f89168261187e565b8355505b6001600288020188555050505b505050505050565b600060608201905061199f6000830186610ec0565b81810360208301526119b181856112bb565b90506119c06040830184610ec0565b949350505050565b7f4e487b7100000000000000000000000000000000000000000000000000000000600052601160045260246000fd5b6000611a0282610e5d565b91507fffffffffffffffffffffffffffffffffffffffffffffffffffffffffffffffff8203611a3457611a336119c8565b5b600182019050919050565b7f446f6e6174696f6e206d7573742062652067726561746572207468616e207a6560008201527f726f000000000000000000000000000000000000000000000000000000000000602082015250565b6000611a9b6022836112aa565b9150611aa682611a3f565b604082019050919050565b60006020820190508181036000830152611aca81611a8e565b9050919050565b7f46756e6472616973657220697320636c6f736564000000000000000000000000600082015250565b6000611b076014836112aa565b9150611b1282611ad1565b602082019050919050565b60006020820190508181036000830152611b3681611afa565b9050919050565b6000611b4882610e5d565b9150611b5383610e5d565b9250828201905080821115611b6b57611b6a6119c8565b5b92915050565b7f5265656e7472616e637947756172643a207265656e7472616e742063616c6c00600082015250565b6000611ba7601f836112aa565b9150611bb282611b71565b602082019050919050565b60006020820190508181036000830152611bd681611b9a565b905091905056fea264697066735822122064714835d56a5d9aeb8e8c214eefc63e735ee35b9557118178d23fb6f8987cb864736f6c63430008140033",
  "linkReferences": {},
  "deployedLinkReferences": {}
}