{"contracts/EduFund.sol":{"EduFund":{"abi":[{"anonymous":false,"inputs":[{"indexed":true,"internalType":"uint256","name":"id","type":"uint256"},{"indexed":false,"internalType":"address","name":"donor","type":"address"},{"indexed":false,"internalType":"uint256","name":"amount","type":"uint256"}],"name":"DonationReceived","type":"event"},{"anonymous":false,"inputs":[{"indexed":true,"internalType":"uint256","name":"id","type":"uint256"},{"indexed":false,"internalType":"string","name":"name","type":"string"},{"indexed":false,"internalType":"uint256","name":"goal","type":"uint256"},{"indexed":false,"internalType":"address","name":"creator","type":"address"}],"name":"FundraiserCreated","type":"event"},{"anonymous":false,"inputs":[{"indexed":true,"internalType":"uint256","name":"id","type":"uint256"},{"indexed":false,"internalType":"uint256","name":"amount","type":"uint256"},{"indexed":false,"internalType":"address","name":"creator","type":"address"}],"name":"FundsWithdrawn","type":"event"},{"inputs":[{"internalType":"string","name":"_name","type":"string"},{"internalType":"string","name":"_description","type":"string"},{"internalType":"uint256","name":"_goal","type":"uint256"}],"name":"createFundraiser","outputs":[],"stateMutability":"nonpayable","type":"function"},{"inputs":[{"internalType":"uint256","name":"_id","type":"uint256"}],"name":"donate","outputs":[],"stateMutability":"payable","type":"function"},{"inputs":[{"internalType":"uint256","name":"","type":"uint256"},{"internalType":"address","name":"","type":"address"}],"name":"donations","outputs":[{"internalType":"uint256","name":"","type":"uint256"}],"stateMutability":"view","type":"function"},{"inputs":[],"name":"fundraiserCount","outputs":[{"internalType":"uint256","name":"","type":"uint256"}],"stateMutability":"view","type":"function"},{"inputs":[{"internalType":"uint256","name":"","type":"uint256"}],"name":"fundraisers","outputs":[{"internalType":"string","name":"name","type":"string"},{"internalType":"string","name":"description","type":"string"},{"internalType":"uint256","name":"goal","type":"uint256"},{"internalType":"uint256","name":"amountRaised","type":"uint256"},{"internalType":"address","name":"creator","type":"address"}],"stateMutability":"view","type":"function"},{"inputs":[{"internalType":"uint256","name":"_id","type":"uint256"}],"name":"getFundraiser","outputs":[{"components":[{"internalType":"string","name":"name","type":"string"},{"internalType":"string","name":"description","type":"string"},{"internalType":"uint256","name":"goal","type":"uint256"},{"internalType":"uint256","name":"amountRaised","type":"uint256"},{"internalType":"address","name":"creator","type":"address"}],"internalType":"struct EduFund.Fundraiser","name":"","type":"tuple"}],"stateMutability":"view","type":"function"},{"inputs":[{"internalType":"uint256","name":"_id","type":"uint256"}],"name":"withdrawFunds","outputs":[],"stateMutability":"nonpayable","type":"function"}],"evm":{"bytecode":{"linkReferences":{},"object":"608060405234801561001057600080fd5b506001600081905550611702806100286000396000f3fe6080604052600436106100705760003560e01c8063c50870b11161004e578063c50870b114610106578063ee1554a31461012f578063f14faf6f1461016c578063f38f72fb1461018857610070565b8063155dd5ee1461007557806337cd09401461009e578063a8200098146100c9575b600080fd5b34801561008157600080fd5b5061009c60048036038101906100979190610b49565b6101c9565b005b3480156100aa57600080fd5b506100b36103ee565b6040516100c09190610b85565b60405180910390f35b3480156100d557600080fd5b506100f060048036038101906100eb9190610b49565b6103f4565b6040516100fd9190610cfd565b60405180910390f35b34801561011257600080fd5b5061012d60048036038101906101289190610e54565b6105f3565b005b34801561013b57600080fd5b5061015660048036038101906101519190610f0b565b61076e565b6040516101639190610b85565b60405180910390f35b61018660048036038101906101819190610b49565b610793565b005b34801561019457600080fd5b506101af60048036038101906101aa9190610b49565b6108fb565b6040516101c0959493929190610fa4565b60405180910390f35b6101d1610a61565b6003548110610215576040517f08c379a000000000000000000000000000000000000000000000000000000000815260040161020c90611051565b60405180910390fd5b60006001600083815260200190815260200160002090508060040160009054906101000a900473ffffffffffffffffffffffffffffffffffffffff1673ffffffffffffffffffffffffffffffffffffffff163373ffffffffffffffffffffffffffffffffffffffff16146102be576040517f08c379a00000000000000000000000000000000000000000000000000000000081526004016102b5906110bd565b60405180910390fd5b6000816003015411610305576040517f08c379a00000000000000000000000000000000000000000000000000000000081526004016102fc90611129565b60405180910390fd5b600081600301549050600082600301819055508160040160009054906101000a900473ffffffffffffffffffffffffffffffffffffffff1673ffffffffffffffffffffffffffffffffffffffff166108fc829081150290604051600060405180830381858888f19350505050158015610382573d6000803e3d6000fd5b50827ff3b5906e5672f3e524854103bcafbbdba80dbdfeca2c35e116127b1060a68318828460040160009054906101000a900473ffffffffffffffffffffffffffffffffffffffff166040516103d9929190611149565b60405180910390a250506103eb610ab0565b50565b60035481565b6103fc610aba565b6003548210610440576040517f08c379a000000000000000000000000000000000000000000000000000000000815260040161043790611051565b60405180910390fd5b600160008381526020019081526020016000206040518060a001604052908160008201805461046e906111a1565b80601f016020809104026020016040519081016040528092919081815260200182805461049a906111a1565b80156104e75780601f106104bc576101008083540402835291602001916104e7565b820191906000526020600020905b8154815290600101906020018083116104ca57829003601f168201915b50505050508152602001600182018054610500906111a1565b80601f016020809104026020016040519081016040528092919081815260200182805461052c906111a1565b80156105795780601f1061054e57610100808354040283529160200191610579565b820191906000526020600020905b81548152906001019060200180831161055c57829003601f168201915b5050505050815260200160028201548152602001600382015481526020016004820160009054906101000a900473ffffffffffffffffffffffffffffffffffffffff1673ffffffffffffffffffffffffffffffffffffffff1673ffffffffffffffffffffffffffffffffffffffff16815250509050919050565b60008111610636576040517f08c379a000000000000000000000000000000000000000000000000000000000815260040161062d9061121e565b60405180910390fd5b6040518060a00160405280848152602001838152602001828152602001600081526020013373ffffffffffffffffffffffffffffffffffffffff16815250600160006003548152602001908152602001600020600082015181600001908161069e91906113ea565b5060208201518160010190816106b491906113ea565b50604082015181600201556060820151816003015560808201518160040160006101000a81548173ffffffffffffffffffffffffffffffffffffffff021916908373ffffffffffffffffffffffffffffffffffffffff1602179055509050506003547f1c8942d9442cc26aff2b20467ff2dccec8e1f808bfe9168de2c367cf875be247848333604051610749939291906114bc565b60405180910390a26003600081548092919061076490611529565b9190505550505050565b6002602052816000526040600020602052806000526040600020600091509150505481565b61079b610a61565b60035481106107df576040517f08c379a00000000000000000000000000000000000000000000000000000000081526004016107d690611051565b60405180910390fd5b60003411610822576040517f08c379a0000000000000000000000000000000000000000000000000000000008152600401610819906115e3565b60405180910390fd5b346001600083815260200190815260200160002060030160008282546108489190611603565b92505081905550346002600083815260200190815260200160002060003373ffffffffffffffffffffffffffffffffffffffff1673ffffffffffffffffffffffffffffffffffffffff16815260200190815260200160002060008282546108af9190611603565b92505081905550807f0b5b4c52969ff7329ecf7ee536409fda87812b15a8622bc6e8cdeab3aee14a2633346040516108e8929190611637565b60405180910390a26108f8610ab0565b50565b600160205280600052604060002060009150905080600001805461091e906111a1565b80601f016020809104026020016040519081016040528092919081815260200182805461094a906111a1565b80156109975780601f1061096c57610100808354040283529160200191610997565b820191906000526020600020905b81548152906001019060200180831161097a57829003601f168201915b5050505050908060010180546109ac906111a1565b80601f01602080910402602001604051908101604052809291908181526020018280546109d8906111a1565b8015610a255780601f106109fa57610100808354040283529160200191610a25565b820191906000526020600020905b815481529060010190602001808311610a0857829003601f168201915b5050505050908060020154908060030154908060040160009054906101000a900473ffffffffffffffffffffffffffffffffffffffff16905085565b600260005403610aa6576040517f08c379a0000000000000000000000000000000000000000000000000000000008152600401610a9d906116ac565b60405180910390fd5b6002600081905550565b6001600081905550565b6040518060a0016040528060608152602001606081526020016000815260200160008152602001600073ffffffffffffffffffffffffffffffffffffffff1681525090565b6000604051905090565b600080fd5b600080fd5b6000819050919050565b610b2681610b13565b8114610b3157600080fd5b50565b600081359050610b4381610b1d565b92915050565b600060208284031215610b5f57610b5e610b09565b5b6000610b6d84828501610b34565b91505092915050565b610b7f81610b13565b82525050565b6000602082019050610b9a6000830184610b76565b92915050565b600081519050919050565b600082825260208201905092915050565b60005b83811015610bda578082015181840152602081019050610bbf565b60008484015250505050565b6000601f19601f8301169050919050565b6000610c0282610ba0565b610c0c8185610bab565b9350610c1c818560208601610bbc565b610c2581610be6565b840191505092915050565b610c3981610b13565b82525050565b600073ffffffffffffffffffffffffffffffffffffffff82169050919050565b6000610c6a82610c3f565b9050919050565b610c7a81610c5f565b82525050565b600060a0830160008301518482036000860152610c9d8282610bf7565b91505060208301518482036020860152610cb78282610bf7565b9150506040830151610ccc6040860182610c30565b506060830151610cdf6060860182610c30565b506080830151610cf26080860182610c71565b508091505092915050565b60006020820190508181036000830152610d178184610c80565b905092915050565b600080fd5b600080fd5b7f4e487b7100000000000000000000000000000000000000000000000000000000600052604160045260246000fd5b610d6182610be6565b810181811067ffffffffffffffff82111715610d8057610d7f610d29565b5b80604052505050565b6000610d93610aff565b9050610d9f8282610d58565b919050565b600067ffffffffffffffff821115610dbf57610dbe610d29565b5b610dc882610be6565b9050602081019050919050565b82818337600083830152505050565b6000610df7610df284610da4565b610d89565b905082815260208101848484011115610e1357610e12610d24565b5b610e1e848285610dd5565b509392505050565b600082601f830112610e3b57610e3a610d1f565b5b8135610e4b848260208601610de4565b91505092915050565b600080600060608486031215610e6d57610e6c610b09565b5b600084013567ffffffffffffffff811115610e8b57610e8a610b0e565b5b610e9786828701610e26565b935050602084013567ffffffffffffffff811115610eb857610eb7610b0e565b5b610ec486828701610e26565b9250506040610ed586828701610b34565b9150509250925092565b610ee881610c5f565b8114610ef357600080fd5b50565b600081359050610f0581610edf565b92915050565b60008060408385031215610f2257610f21610b09565b5b6000610f3085828601610b34565b9250506020610f4185828601610ef6565b9150509250929050565b600082825260208201905092915050565b6000610f6782610ba0565b610f718185610f4b565b9350610f81818560208601610bbc565b610f8a81610be6565b840191505092915050565b610f9e81610c5f565b82525050565b600060a0820190508181036000830152610fbe8188610f5c565b90508181036020830152610fd28187610f5c565b9050610fe16040830186610b76565b610fee6060830185610b76565b610ffb6080830184610f95565b9695505050505050565b7f46756e6472616973657220646f6573206e6f7420657869737400000000000000600082015250565b600061103b601983610f4b565b915061104682611005565b602082019050919050565b6000602082019050818103600083015261106a8161102e565b9050919050565b7f4f6e6c792063726561746f722063616e2077697468647261772066756e647300600082015250565b60006110a7601f83610f4b565b91506110b282611071565b602082019050919050565b600060208201905081810360008301526110d68161109a565b9050919050565b7f4e6f2066756e647320746f207769746864726177000000000000000000000000600082015250565b6000611113601483610f4b565b915061111e826110dd565b602082019050919050565b6000602082019050818103600083015261114281611106565b9050919050565b600060408201905061115e6000830185610b76565b61116b6020830184610f95565b9392505050565b7f4e487b7100000000000000000000000000000000000000000000000000000000600052602260045260246000fd5b600060028204905060018216806111b957607f821691505b6020821081036111cc576111cb611172565b5b50919050565b7f476f616c206d7573742062652067726561746572207468616e207a65726f0000600082015250565b6000611208601e83610f4b565b9150611213826111d2565b602082019050919050565b60006020820190508181036000830152611237816111fb565b9050919050565b60008190508160005260206000209050919050565b60006020601f8301049050919050565b600082821b905092915050565b6000600883026112a07fffffffffffffffffffffffffffffffffffffffffffffffffffffffffffffffff82611263565b6112aa8683611263565b95508019841693508086168417925050509392505050565b6000819050919050565b60006112e76112e26112dd84610b13565b6112c2565b610b13565b9050919050565b6000819050919050565b611301836112cc565b61131561130d826112ee565b848454611270565b825550505050565b600090565b61132a61131d565b6113358184846112f8565b505050565b5b818110156113595761134e600082611322565b60018101905061133b565b5050565b601f82111561139e5761136f8161123e565b61137884611253565b81016020851015611387578190505b61139b61139385611253565b83018261133a565b50505b505050565b600082821c905092915050565b60006113c1600019846008026113a3565b1980831691505092915050565b60006113da83836113b0565b9150826002028217905092915050565b6113f382610ba0565b67ffffffffffffffff81111561140c5761140b610d29565b5b61141682546111a1565b61142182828561135d565b600060209050601f8311600181146114545760008415611442578287015190505b61144c85826113ce565b8655506114b4565b601f1984166114628661123e565b60005b8281101561148a57848901518255600182019150602085019450602081019050611465565b868310156114a757848901516114a3601f8916826113b0565b8355505b6001600288020188555050505b505050505050565b600060608201905081810360008301526114d68186610f5c565b90506114e56020830185610b76565b6114f26040830184610f95565b949350505050565b7f4e487b7100000000000000000000000000000000000000000000000000000000600052601160045260246000fd5b600061153482610b13565b91507fffffffffffffffffffffffffffffffffffffffffffffffffffffffffffffffff8203611566576115656114fa565b5b600182019050919050565b7f446f6e6174696f6e206d7573742062652067726561746572207468616e207a6560008201527f726f000000000000000000000000000000000000000000000000000000000000602082015250565b60006115cd602283610f4b565b91506115d882611571565b604082019050919050565b600060208201905081810360008301526115fc816115c0565b9050919050565b600061160e82610b13565b915061161983610b13565b9250828201905080821115611631576116306114fa565b5b92915050565b600060408201905061164c6000830185610f95565b6116596020830184610b76565b9392505050565b7f5265656e7472616e637947756172643a207265656e7472616e742063616c6c00600082015250565b6000611696601f83610f4b565b91506116a182611660565b602082019050919050565b600060208201905081810360008301526116c581611689565b905091905056fea264697066735822122032df0b7dfa20c94f71b594af5f8cabbf2b4ff58d67187c7e0db51982bbb0c32564736f6c63430008140033","opcodes":"PUSH1 0x80 PUSH1 0x40 MSTORE CALLVALUE DUP1 ISZERO PUSH2 0x10 JUMPI PUSH1 0x0 DUP1 REVERT JUMPDEST POP PUSH1 0x1 PUSH1 0x0 DUP2 SWAP1 SSTORE POP PUSH2 0x1702 DUP1 PUSH2 0x28 PUSH1 0x0 CODECOPY PUSH1 0x0 RETURN INVALID PUSH1 0x80 PUSH1 0x40 MSTORE PUSH1 0x4 CALLDATASIZE LT PUSH2 0x70 JUMPI PUSH1 0x0 CALLDATALOAD PUSH1 0xE0 SHR DUP1 PUSH4 0xC50870B1 GT PUSH2 0x4E JUMPI DUP1 PUSH4 0xC50870B1 EQ PUSH2 0x106 JUMPI DUP1 PUSH4 0xEE1554A3 EQ PUSH2 0x12F JUMPI DUP1 PUSH4 0xF14FAF6F EQ PUSH2 0x16C JUMPI DUP1 PUSH4 0xF38F72FB EQ PUSH2 0x188 JUMPI PUSH2 0x70 JUMP JUMPDEST DUP1 PUSH4 0x155DD5EE EQ PUSH2 0x75 JUMPI DUP1 PUSH4 0x37CD0940 EQ PUSH2 0x9E JUMPI DUP1 PUSH4 0xA8200098 EQ PUSH2 0xC9 JUMPI JUMPDEST PUSH1 0x0 DUP1 REVERT JUMPDEST CALLVALUE DUP1 ISZERO PUSH2 0x81 JUMPI PUSH1 0x0 DUP1 REVERT JUMPDEST POP PUSH2 0x9C PUSH1 0x4 DUP1 CALLDATASIZE SUB DUP2 ADD SWAP1 PUSH2 0x97 SWAP2 SWAP1 PUSH2 0xB49 JUMP JUMPDEST PUSH2 0x1C9 JUMP JUMPDEST STOP JUMPDEST CALLVALUE DUP1 ISZERO PUSH2 0xAA JUMPI PUSH1 0x0 DUP1 REVERT JUMPDEST POP PUSH2 0xB3 PUSH2 0x3EE JUMP JUMPDEST PUSH1 0x40 MLOAD PUSH2 0xC0 SWAP2 SWAP1 PUSH2 0xB85 JUMP JUMPDEST PUSH1 0x40 MLOAD DUP1 SWAP2 SUB SWAP1 RETURN JUMPDEST CALLVALUE DUP1 ISZERO PUSH2 0xD5 JUMPI PUSH1 0x0 DUP1 REVERT JUMPDEST POP PUSH2 0xF0 PUSH1 0x4 DUP1 CALLDATASIZE SUB DUP2 ADD SWAP1 PUSH2 0xEB SWAP2 SWAP1 PUSH2 0xB49 JUMP JUMPDEST PUSH2 0x3F4 JUMP JUMPDEST PUSH1 0x40 MLOAD PUSH2 0xFD SWAP2 SWAP1 PUSH2 0xCFD JUMP JUMPDEST PUSH1 0x40 MLOAD DUP1 SWAP2 SUB SWAP1 RETURN JUMPDEST CALLVALUE DUP1 ISZERO PUSH2 0x112 JUMPI PUSH1 0x0 DUP1 REVERT JUMPDEST POP PUSH2 0x12D PUSH1 0x4 DUP1 CALLDATASIZE SUB DUP2 ADD SWAP1 PUSH2 0x128 SWAP2 SWAP1 PUSH2 0xE54 JUMP JUMPDEST PUSH2 0x5F3 JUMP JUMPDEST STOP JUMPDEST CALLVALUE DUP1 ISZERO PUSH2 0x13B JUMPI PUSH1 0x0 DUP1 REVERT JUMPDEST POP PUSH2 0x156 PUSH1 0x4 DUP1 CALLDATASIZE SUB DUP2 ADD SWAP1 PUSH2 0x151 SWAP2 SWAP1 PUSH2 0xF0B JUMP JUMPDEST PUSH2 0x76E JUMP JUMPDEST PUSH1 0x40 MLOAD PUSH2 0x163 SWAP2 SWAP1 PUSH2 0xB85 JUMP JUMPDEST PUSH1 0x40 MLOAD DUP1 SWAP2 SUB SWAP1 RETURN JUMPDEST PUSH2 0x186 PUSH1 0x4 DUP1 CALLDATASIZE SUB DUP2 ADD SWAP1 PUSH2 0x181 SWAP2 SWAP1 PUSH2 0xB49 JUMP JUMPDEST PUSH2 0x793 JUMP JUMPDEST STOP JUMPDEST CALLVALUE DUP1 ISZERO PUSH2 0x194 JUMPI PUSH1 0x0 DUP1 REVERT JUMPDEST POP PUSH2 0x1AF PUSH1 0x4 DUP1 CALLDATASIZE SUB DUP2 ADD SWAP1 PUSH2 0x1AA SWAP2 SWAP1 PUSH2 0xB49 JUMP JUMPDEST PUSH2 0x8FB JUMP JUMPDEST PUSH1 0x40 MLOAD PUSH2 0x1C0 SWAP6 SWAP5 SWAP4 SWAP3 SWAP2 SWAP1 PUSH2 0xFA4 JUMP JUMPDEST PUSH1 0x40 MLOAD DUP1 SWAP2 SUB SWAP1 RETURN JUMPDEST PUSH2 0x1D1 PUSH2 0xA61 JUMP JUMPDEST PUSH1 0x3 SLOAD DUP2 LT PUSH2 0x215 JUMPI PUSH1 0x40 MLOAD PUSH32 0x8C379A000000000000000000000000000000000000000000000000000000000 DUP2 MSTORE PUSH1 0x4 ADD PUSH2 0x20C SWAP1 PUSH2 0x1051 JUMP JUMPDEST PUSH1 0x40 MLOAD DUP1 SWAP2 SUB SWAP1 REVERT JUMPDEST PUSH1 0x0 PUSH1 0x1 PUSH1 0x0 DUP4 DUP2 MSTORE PUSH1 0x20 ADD SWAP1 DUP2 MSTORE PUSH1 0x20 ADD PUSH1 0x0 KECCAK256 SWAP1 POP DUP1 PUSH1 0x4 ADD PUSH1 0x0 SWAP1 SLOAD SWAP1 PUSH2 0x100 EXP SWAP1 DIV PUSH20 0xFFFFFFFFFFFFFFFFFFFFFFFFFFFFFFFFFFFFFFFF AND PUSH20 0xFFFFFFFFFFFFFFFFFFFFFFFFFFFFFFFFFFFFFFFF AND CALLER PUSH20 0xFFFFFFFFFFFFFFFFFFFFFFFFFFFFFFFFFFFFFFFF AND EQ PUSH2 0x2BE JUMPI PUSH1 0x40 MLOAD PUSH32 0x8C379A000000000000000000000000000000000000000000000000000000000 DUP2 MSTORE PUSH1 0x4 ADD PUSH2 0x2B5 SWAP1 PUSH2 0x10BD JUMP JUMPDEST PUSH1 0x40 MLOAD DUP1 SWAP2 SUB SWAP1 REVERT JUMPDEST PUSH1 0x0 DUP2 PUSH1 0x3 ADD SLOAD GT PUSH2 0x305 JUMPI PUSH1 0x40 MLOAD PUSH32 0x8C379A000000000000000000000000000000000000000000000000000000000 DUP2 MSTORE PUSH1 0x4 ADD PUSH2 0x2FC SWAP1 PUSH2 0x1129 JUMP JUMPDEST PUSH1 0x40 MLOAD DUP1 SWAP2 SUB SWAP1 REVERT JUMPDEST PUSH1 0x0 DUP2 PUSH1 0x3 ADD SLOAD SWAP1 POP PUSH1 0x0 DUP3 PUSH1 0x3 ADD DUP2 SWAP1 SSTORE POP DUP2 PUSH1 0x4 ADD PUSH1 0x0 SWAP1 SLOAD SWAP1 PUSH2 0x100 EXP SWAP1 DIV PUSH20 0xFFFFFFFFFFFFFFFFFFFFFFFFFFFFFFFFFFFFFFFF AND PUSH20 0xFFFFFFFFFFFFFFFFFFFFFFFFFFFFFFFFFFFFFFFF AND PUSH2 0x8FC DUP3 SWAP1 DUP2 ISZERO MUL SWAP1 PUSH1 0x40 MLOAD PUSH1 0x0 PUSH1 0x40 MLOAD DUP1 DUP4 SUB DUP2 DUP6 DUP9 DUP9 CALL SWAP4 POP POP POP POP ISZERO DUP1 ISZERO PUSH2 0x382 JUMPI RETURNDATASIZE PUSH1 0x0 DUP1 RETURNDATACOPY RETURNDATASIZE PUSH1 0x0 REVERT JUMPDEST POP DUP3 PUSH32 0xF3B5906E5672F3E524854103BCAFBBDBA80DBDFECA2C35E116127B1060A68318 DUP3 DUP5 PUSH1 0x4 ADD PUSH1 0x0 SWAP1 SLOAD SWAP1 PUSH2 0x100 EXP SWAP1 DIV PUSH20 0xFFFFFFFFFFFFFFFFFFFFFFFFFFFFFFFFFFFFFFFF AND PUSH1 0x40 MLOAD PUSH2 0x3D9 SWAP3 SWAP2 SWAP1 PUSH2 0x1149 JUMP JUMPDEST PUSH1 0x40 MLOAD DUP1 SWAP2 SUB SWAP1 LOG2 POP POP PUSH2 0x3EB PUSH2 0xAB0 JUMP JUMPDEST POP JUMP JUMPDEST PUSH1 0x3 SLOAD DUP2 JUMP JUMPDEST PUSH2 0x3FC PUSH2 0xABA JUMP JUMPDEST PUSH1 0x3 SLOAD DUP3 LT PUSH2 0x440 JUMPI PUSH1 0x40 MLOAD PUSH32 0x8C379A000000000000000000000000000000000000000000000000000000000 DUP2 MSTORE PUSH1 0x4 ADD PUSH2 0x437 SWAP1 PUSH2 0x1051 JUMP JUMPDEST PUSH1 0x40 MLOAD DUP1 SWAP2 SUB SWAP1 REVERT JUMPDEST PUSH1 0x1 PUSH1 0x0 DUP4 DUP2 MSTORE PUSH1 0x20 ADD SWAP1 DUP2 MSTORE PUSH1 0x20 ADD PUSH1 0x0 KECCAK256 PUSH1 0x40 MLOAD DUP1 PUSH1 0xA0 ADD PUSH1 0x40 MSTORE SWAP1 DUP2 PUSH1 0x0 DUP3 ADD DUP1 SLOAD PUSH2 0x46E SWAP1 PUSH2 0x11A1 JUMP JUMPDEST DUP1 PUSH1 0x1F ADD PUSH1 0x20 DUP1 SWAP2 DIV MUL PUSH1 0x20 ADD PUSH1 0x40 MLOAD SWAP1 DUP2 ADD PUSH1 0x40 MSTORE DUP1 SWAP3 SWAP2 SWAP1 DUP2 DUP2 MSTORE PUSH1 0x20 ADD DUP3 DUP1 SLOAD PUSH2 0x49A SWAP1 PUSH2 0x11A1 JUMP JUMPDEST DUP1 ISZERO PUSH2 0x4E7 JUMPI DUP1 PUSH1 0x1F LT PUSH2 0x4BC JUMPI PUSH2 0x100 DUP1 DUP4 SLOAD DIV MUL DUP4 MSTORE SWAP2 PUSH1 0x20 ADD SWAP2 PUSH2 0x4E7 JUMP JUMPDEST DUP3 ADD SWAP2 SWAP1 PUSH1 0x0 MSTORE PUSH1 0x20 PUSH1 0x0 KECCAK256 SWAP1 JUMPDEST DUP2 SLOAD DUP2 MSTORE SWAP1 PUSH1 0x1 ADD SWAP1 PUSH1 0x20 ADD DUP1 DUP4 GT PUSH2 0x4CA JUMPI DUP3 SWAP1 SUB PUSH1 0x1F AND DUP3 ADD SWAP2 JUMPDEST POP POP POP POP POP DUP2 MSTORE PUSH1 0x20 ADD PUSH1 0x1 DUP3 ADD DUP1 SLOAD PUSH2 0x500 SWAP1 PUSH2 0x11A1 JUMP JUMPDEST DUP1 PUSH1 0x1F ADD PUSH1 0x20 DUP1 SWAP2 DIV MUL PUSH1 0x20 ADD PUSH1 0x40 MLOAD SWAP1 DUP2 ADD PUSH1 0x40 MSTORE DUP1 SWAP3 SWAP2 SWAP1 DUP2 DUP2 MSTORE PUSH1 0x20 ADD DUP3 DUP1 SLOAD PUSH2 0x52C SWAP1 PUSH2 0x11A1 JUMP JUMPDEST DUP1 ISZERO PUSH2 0x579 JUMPI DUP1 PUSH1 0x1F LT PUSH2 0x54E JUMPI PUSH2 0x100 DUP1 DUP4 SLOAD DIV MUL DUP4 MSTORE SWAP2 PUSH1 0x20 ADD SWAP2 PUSH2 0x579 JUMP JUMPDEST DUP3 ADD SWAP2 SWAP1 PUSH1 0x0 MSTORE PUSH1 0x20 PUSH1 0x0 KECCAK256 SWAP1 JUMPDEST DUP2 SLOAD DUP2 MSTORE SWAP1 PUSH1 0x1 ADD SWAP1 PUSH1 0x20 ADD DUP1 DUP4 GT PUSH2 0x55C JUMPI DUP3 SWAP1 SUB PUSH1 0x1F AND DUP3 ADD SWAP2 JUMPDEST POP POP POP POP POP DUP2 MSTORE PUSH1 0x20 ADD PUSH1 0x2 DUP3 ADD SLOAD DUP2 MSTORE PUSH1 0x20 ADD PUSH1 0x3 DUP3 ADD SLOAD DUP2 MSTORE PUSH1 0x20 ADD PUSH1 0x4 DUP3 ADD PUSH1 0x0 SWAP1 SLOAD SWAP1 PUSH2 0x100 EXP SWAP1 DIV PUSH20 0xFFFFFFFFFFFFFFFFFFFFFFFFFFFFFFFFFFFFFFFF AND PUSH20 0xFFFFFFFFFFFFFFFFFFFFFFFFFFFFFFFFFFFFFFFF AND PUSH20 0xFFFFFFFFFFFFFFFFFFFFFFFFFFFFFFFFFFFFFFFF AND DUP2 MSTORE POP POP SWAP1 POP SWAP2 SWAP1 POP JUMP JUMPDEST PUSH1 0x0 DUP2 GT PUSH2 0x636 JUMPI PUSH1 0x40 MLOAD PUSH32 0x8C379A000000000000000000000000000000000000000000000000000000000 DUP2 MSTORE PUSH1 0x4 ADD PUSH2 0x62D SWAP1 PUSH2 0x121E JUMP JUMPDEST PUSH1 0x40 MLOAD DUP1 SWAP2 SUB SWAP1 REVERT JUMPDEST PUSH1 0x40 MLOAD DUP1 PUSH1 0xA0 ADD PUSH1 0x40 MSTORE DUP1 DUP5 DUP2 MSTORE PUSH1 0x20 ADD DUP4 DUP2 MSTORE PUSH1 0x20 ADD DUP3 DUP2 MSTORE PUSH1 0x20 ADD PUSH1 0x0 DUP2 MSTORE PUSH1 0x20 ADD CALLER PUSH20 0xFFFFFFFFFFFFFFFFFFFFFFFFFFFFFFFFFFFFFFFF AND DUP2 MSTORE POP PUSH1 0x1 PUSH1 0x0 PUSH1 0x3 SLOAD DUP2 MSTORE PUSH1 0x20 ADD SWAP1 DUP2 MSTORE PUSH1 0x20 ADD PUSH1 0x0 KECCAK256 PUSH1 0x0 DUP3 ADD MLOAD DUP2 PUSH1 0x0 ADD SWAP1 DUP2 PUSH2 0x69E SWAP2 SWAP1 PUSH2 0x13EA JUMP JUMPDEST POP PUSH1 0x20 DUP3 ADD MLOAD DUP2 PUSH1 0x1 ADD SWAP1 DUP2 PUSH2 0x6B4 SWAP2 SWAP1 PUSH2 0x13EA JUMP JUMPDEST POP PUSH1 0x40 DUP3 ADD MLOAD DUP2 PUSH1 0x2 ADD SSTORE PUSH1 0x60 DUP3 ADD MLOAD DUP2 PUSH1 0x3 ADD SSTORE PUSH1 0x80 DUP3 ADD MLOAD DUP2 PUSH1 0x4 ADD PUSH1 0x0 PUSH2 0x100 EXP DUP2 SLOAD DUP2 PUSH20 0xFFFFFFFFFFFFFFFFFFFFFFFFFFFFFFFFFFFFFFFF MUL NOT AND SWAP1 DUP4 PUSH20 0xFFFFFFFFFFFFFFFFFFFFFFFFFFFFFFFFFFFFFFFF AND MUL OR SWAP1 SSTORE POP SWAP1 POP POP PUSH1 0x3 SLOAD PUSH32 0x1C8942D9442CC26AFF2B20467FF2DCCEC8E1F808BFE9168DE2C367CF875BE247 DUP5 DUP4 CALLER PUSH1 0x40 MLOAD PUSH2 0x749 SWAP4 SWAP3 SWAP2 SWAP1 PUSH2 0x14BC JUMP JUMPDEST PUSH1 0x40 MLOAD DUP1 SWAP2 SUB SWAP1 LOG2 PUSH1 0x3 PUSH1 0x0 DUP2 SLOAD DUP1 SWAP3 SWAP2 SWAP1 PUSH2 0x764 SWAP1 PUSH2 0x1529 JUMP JUMPDEST SWAP2 SWAP1 POP SSTORE POP POP POP POP JUMP JUMPDEST PUSH1 0x2 PUSH1 0x20 MSTORE DUP2 PUSH1 0x0 MSTORE PUSH1 0x40 PUSH1 0x0 KECCAK256 PUSH1 0x20 MSTORE DUP1 PUSH1 0x0 MSTORE PUSH1 0x40 PUSH1 0x0 KECCAK256 PUSH1 0x0 SWAP2 POP SWAP2 POP POP SLOAD DUP2 JUMP JUMPDEST PUSH2 0x79B PUSH2 0xA61 JUMP JUMPDEST PUSH1 0x3 SLOAD DUP2 LT PUSH2 0x7DF JUMPI PUSH1 0x40 MLOAD PUSH32 0x8C379A000000000000000000000000000000000000000000000000000000000 DUP2 MSTORE PUSH1 0x4 ADD PUSH2 0x7D6 SWAP1 PUSH2 0x1051 JUMP JUMPDEST PUSH1 0x40 MLOAD DUP1 SWAP2 SUB SWAP1 REVERT JUMPDEST PUSH1 0x0 CALLVALUE GT PUSH2 0x822 JUMPI PUSH1 0x40 MLOAD PUSH32 0x8C379A000000000000000000000000000000000000000000000000000000000 DUP2 MSTORE PUSH1 0x4 ADD PUSH2 0x819 SWAP1 PUSH2 0x15E3 JUMP JUMPDEST PUSH1 0x40 MLOAD DUP1 SWAP2 SUB SWAP1 REVERT JUMPDEST CALLVALUE PUSH1 0x1 PUSH1 0x0 DUP4 DUP2 MSTORE PUSH1 0x20 ADD SWAP1 DUP2 MSTORE PUSH1 0x20 ADD PUSH1 0x0 KECCAK256 PUSH1 0x3 ADD PUSH1 0x0 DUP3 DUP3 SLOAD PUSH2 0x848 SWAP2 SWAP1 PUSH2 0x1603 JUMP JUMPDEST SWAP3 POP POP DUP2 SWAP1 SSTORE POP CALLVALUE PUSH1 0x2 PUSH1 0x0 DUP4 DUP2 MSTORE PUSH1 0x20 ADD SWAP1 DUP2 MSTORE PUSH1 0x20 ADD PUSH1 0x0 KECCAK256 PUSH1 0x0 CALLER PUSH20 0xFFFFFFFFFFFFFFFFFFFFFFFFFFFFFFFFFFFFFFFF AND PUSH20 0xFFFFFFFFFFFFFFFFFFFFFFFFFFFFFFFFFFFFFFFF AND DUP2 MSTORE PUSH1 0x20 ADD SWAP1 DUP2 MSTORE PUSH1 0x20 ADD PUSH1 0x0 KECCAK256 PUSH1 0x0 DUP3 DUP3 SLOAD PUSH2 0x8AF SWAP2 SWAP1 PUSH2 0x1603 JUMP JUMPDEST SWAP3 POP POP DUP2 SWAP1 SSTORE POP DUP1 PUSH32 0xB5B4C52969FF7329ECF7EE536409FDA87812B15A8622BC6E8CDEAB3AEE14A26 CALLER CALLVALUE PUSH1 0x40 MLOAD PUSH2 0x8E8 SWAP3 SWAP2 SWAP1 PUSH2 0x1637 JUMP JUMPDEST PUSH1 0x40 MLOAD DUP1 SWAP2 SUB SWAP1 LOG2 PUSH2 0x8F8 PUSH2 0xAB0 JUMP JUMPDEST POP JUMP JUMPDEST PUSH1 0x1 PUSH1 0x20 MSTORE DUP1 PUSH1 0x0 MSTORE PUSH1 0x40 PUSH1 0x0 KECCAK256 PUSH1 0x0 SWAP2 POP SWAP1 POP DUP1 PUSH1 0x0 ADD DUP1 SLOAD PUSH2 0x91E SWAP1 PUSH2 0x11A1 JUMP JUMPDEST DUP1 PUSH1 0x1F ADD PUSH1 0x20 DUP1 SWAP2 DIV MUL PUSH1 0x20 ADD PUSH1 0x40 MLOAD SWAP1 DUP2 ADD PUSH1 0x40 MSTORE DUP1 SWAP3 SWAP2 SWAP1 DUP2 DUP2 MSTORE PUSH1 0x20 ADD DUP3 DUP1 SLOAD PUSH2 0x94A SWAP1 PUSH2 0x11A1 JUMP JUMPDEST DUP1 ISZERO PUSH2 0x997 JUMPI DUP1 PUSH1 0x1F LT PUSH2 0x96C JUMPI PUSH2 0x100 DUP1 DUP4 SLOAD DIV MUL DUP4 MSTORE SWAP2 PUSH1 0x20 ADD SWAP2 PUSH2 0x997 JUMP JUMPDEST DUP3 ADD SWAP2 SWAP1 PUSH1 0x0 MSTORE PUSH1 0x20 PUSH1 0x0 KECCAK256 SWAP1 JUMPDEST DUP2 SLOAD DUP2 MSTORE SWAP1 PUSH1 0x1 ADD SWAP1 PUSH1 0x20 ADD DUP1 DUP4 GT PUSH2 0x97A JUMPI DUP3 SWAP1 SUB PUSH1 0x1F AND DUP3 ADD SWAP2 JUMPDEST POP POP POP POP POP SWAP1 DUP1 PUSH1 0x1 ADD DUP1 SLOAD PUSH2 0x9AC SWAP1 PUSH2 0x11A1 JUMP JUMPDEST DUP1 PUSH1 0x1F ADD PUSH1 0x20 DUP1 SWAP2 DIV MUL PUSH1 0x20 ADD PUSH1 0x40 MLOAD SWAP1 DUP2 ADD PUSH1 0x40 MSTORE DUP1 SWAP3 SWAP2 SWAP1 DUP2 DUP2 MSTORE PUSH1 0x20 ADD DUP3 DUP1 SLOAD PUSH2 0x9D8 SWAP1 PUSH2 0x11A1 JUMP JUMPDEST DUP1 ISZERO PUSH2 0xA25 JUMPI DUP1 PUSH1 0x1F LT PUSH2 0x9FA JUMPI PUSH2 0x100 DUP1 DUP4 SLOAD DIV MUL DUP4 MSTORE SWAP2 PUSH1 0x20 ADD SWAP2 PUSH2 0xA25 JUMP JUMPDEST DUP3 ADD SWAP2 SWAP1 PUSH1 0x0 MSTORE PUSH1 0x20 PUSH1 0x0 KECCAK256 SWAP1 JUMPDEST DUP2 SLOAD DUP2 MSTORE SWAP1 PUSH1 0x1 ADD SWAP1 PUSH1 0x20 ADD DUP1 DUP4 GT PUSH2 0xA08 JUMPI DUP3 SWAP1 SUB PUSH1 0x1F AND DUP3 ADD SWAP2 JUMPDEST POP POP POP POP POP SWAP1 DUP1 PUSH1 0x2 ADD SLOAD SWAP1 DUP1 PUSH1 0x3 ADD SLOAD SWAP1 DUP1 PUSH1 0x4 ADD PUSH1 0x0 SWAP1 SLOAD SWAP1 PUSH2 0x100 EXP SWAP1 DIV PUSH20 0xFFFFFFFFFFFFFFFFFFFFFFFFFFFFFFFFFFFFFFFF AND SWAP1 POP DUP6 JUMP JUMPDEST PUSH1 0x2 PUSH1 0x0 SLOAD SUB PUSH2 0xAA6 JUMPI PUSH1 0x40 MLOAD PUSH32 0x8C379A000000000000000000000000000000000000000000000000000000000 DUP2 MSTORE PUSH1 0x4 ADD PUSH2 0xA9D SWAP1 PUSH2 0x16AC JUMP JUMPDEST PUSH1 0x40 MLOAD DUP1 SWAP2 SUB SWAP1 REVERT JUMPDEST PUSH1 0x2 PUSH1 0x0 DUP2 SWAP1 SSTORE POP JUMP JUMPDEST PUSH1 0x1 PUSH1 0x0 DUP2 SWAP1 SSTORE POP JUMP JUMPDEST PUSH1 0x40 MLOAD DUP1 PUSH1 0xA0 ADD PUSH1 0x40 MSTORE DUP1 PUSH1 0x60 DUP2 MSTORE PUSH1 0x20 ADD PUSH1 0x60 DUP2 MSTORE PUSH1 0x20 ADD PUSH1 0x0 DUP2 MSTORE PUSH1 0x20 ADD PUSH1 0x0 DUP2 MSTORE PUSH1 0x20 ADD PUSH1 0x0 PUSH20 0xFFFFFFFFFFFFFFFFFFFFFFFFFFFFFFFFFFFFFFFF AND DUP2 MSTORE POP SWAP1 JUMP JUMPDEST PUSH1 0x0 PUSH1 0x40 MLOAD SWAP1 POP SWAP1 JUMP JUMPDEST PUSH1 0x0 DUP1 REVERT JUMPDEST PUSH1 0x0 DUP1 REVERT JUMPDEST PUSH1 0x0 DUP2 SWAP1 POP SWAP2 SWAP1 POP JUMP JUMPDEST PUSH2 0xB26 DUP2 PUSH2 0xB13 JUMP JUMPDEST DUP2 EQ PUSH2 0xB31 JUMPI PUSH1 0x0 DUP1 REVERT JUMPDEST POP JUMP JUMPDEST PUSH1 0x0 DUP2 CALLDATALOAD SWAP1 POP PUSH2 0xB43 DUP2 PUSH2 0xB1D JUMP JUMPDEST SWAP3 SWAP2 POP POP JUMP JUMPDEST PUSH1 0x0 PUSH1 0x20 DUP3 DUP5 SUB SLT ISZERO PUSH2 0xB5F JUMPI PUSH2 0xB5E PUSH2 0xB09 JUMP JUMPDEST JUMPDEST PUSH1 0x0 PUSH2 0xB6D DUP5 DUP3 DUP6 ADD PUSH2 0xB34 JUMP JUMPDEST SWAP2 POP POP SWAP3 SWAP2 POP POP JUMP JUMPDEST PUSH2 0xB7F DUP2 PUSH2 0xB13 JUMP JUMPDEST DUP3 MSTORE POP POP JUMP JUMPDEST PUSH1 0x0 PUSH1 0x20 DUP3 ADD SWAP1 POP PUSH2 0xB9A PUSH1 0x0 DUP4 ADD DUP5 PUSH2 0xB76 JUMP JUMPDEST SWAP3 SWAP2 POP POP JUMP JUMPDEST PUSH1 0x0 DUP2 MLOAD SWAP1 POP SWAP2 SWAP1 POP JUMP JUMPDEST PUSH1 0x0 DUP3 DUP3 MSTORE PUSH1 0x20 DUP3 ADD SWAP1 POP SWAP3 SWAP2 POP POP JUMP JUMPDEST PUSH1 0x0 JUMPDEST DUP4 DUP2 LT ISZERO PUSH2 0xBDA JUMPI DUP1 DUP3 ADD MLOAD DUP2 DUP5 ADD MSTORE PUSH1 0x20 DUP2 ADD SWAP1 POP PUSH2 0xBBF JUMP JUMPDEST PUSH1 0x0 DUP5 DUP5 ADD MSTORE POP POP POP POP JUMP JUMPDEST PUSH1 0x0 PUSH1 0x1F NOT PUSH1 0x1F DUP4 ADD AND SWAP1 POP SWAP2 SWAP1 POP JUMP JUMPDEST PUSH1 0x0 PUSH2 0xC02 DUP3 PUSH2 0xBA0 JUMP JUMPDEST PUSH2 0xC0C DUP2 DUP6 PUSH2 0xBAB JUMP JUMPDEST SWAP4 POP PUSH2 0xC1C DUP2 DUP6 PUSH1 0x20 DUP7 ADD PUSH2 0xBBC JUMP JUMPDEST PUSH2 0xC25 DUP2 PUSH2 0xBE6 JUMP JUMPDEST DUP5 ADD SWAP2 POP POP SWAP3 SWAP2 POP POP JUMP JUMPDEST PUSH2 0xC39 DUP2 PUSH2 0xB13 JUMP JUMPDEST DUP3 MSTORE POP POP JUMP JUMPDEST PUSH1 0x0 PUSH20 0xFFFFFFFFFFFFFFFFFFFFFFFFFFFFFFFFFFFFFFFF DUP3 AND SWAP1 POP SWAP2 SWAP1 POP JUMP JUMPDEST PUSH1 0x0 PUSH2 0xC6A DUP3 PUSH2 0xC3F JUMP JUMPDEST SWAP1 POP SWAP2 SWAP1 POP JUMP JUMPDEST PUSH2 0xC7A DUP2 PUSH2 0xC5F JUMP JUMPDEST DUP3 MSTORE POP POP JUMP JUMPDEST PUSH1 0x0 PUSH1 0xA0 DUP4 ADD PUSH1 0x0 DUP4 ADD MLOAD DUP5 DUP3 SUB PUSH1 0x0 DUP7 ADD MSTORE PUSH2 0xC9D DUP3 DUP3 PUSH2 0xBF7 JUMP JUMPDEST SWAP2 POP POP PUSH1 0x20 DUP4 ADD MLOAD DUP5 DUP3 SUB PUSH1 0x20 DUP7 ADD MSTORE PUSH2 0xCB7 DUP3 DUP3 PUSH2 0xBF7 JUMP JUMPDEST SWAP2 POP POP PUSH1 0x40 DUP4 ADD MLOAD PUSH2 0xCCC PUSH1 0x40 DUP7 ADD DUP3 PUSH2 0xC30 JUMP JUMPDEST POP PUSH1 0x60 DUP4 ADD MLOAD PUSH2 0xCDF PUSH1 0x60 DUP7 ADD DUP3 PUSH2 0xC30 JUMP JUMPDEST POP PUSH1 0x80 DUP4 ADD MLOAD PUSH2 0xCF2 PUSH1 0x80 DUP7 ADD DUP3 PUSH2 0xC71 JUMP JUMPDEST POP DUP1 SWAP2 POP POP SWAP3 SWAP2 POP POP JUMP JUMPDEST PUSH1 0x0 PUSH1 0x20 DUP3 ADD SWAP1 POP DUP2 DUP2 SUB PUSH1 0x0 DUP4 ADD MSTORE PUSH2 0xD17 DUP2 DUP5 PUSH2 0xC80 JUMP JUMPDEST SWAP1 POP SWAP3 SWAP2 POP POP JUMP JUMPDEST PUSH1 0x0 DUP1 REVERT JUMPDEST PUSH1 0x0 DUP1 REVERT JUMPDEST PUSH32 0x4E487B7100000000000000000000000000000000000000000000000000000000 PUSH1 0x0 MSTORE PUSH1 0x41 PUSH1 0x4 MSTORE PUSH1 0x24 PUSH1 0x0 REVERT JUMPDEST PUSH2 0xD61 DUP3 PUSH2 0xBE6 JUMP JUMPDEST DUP2 ADD DUP2 DUP2 LT PUSH8 0xFFFFFFFFFFFFFFFF DUP3 GT OR ISZERO PUSH2 0xD80 JUMPI PUSH2 0xD7F PUSH2 0xD29 JUMP JUMPDEST JUMPDEST DUP1 PUSH1 0x40 MSTORE POP POP POP JUMP JUMPDEST PUSH1 0x0 PUSH2 0xD93 PUSH2 0xAFF JUMP JUMPDEST SWAP1 POP PUSH2 0xD9F DUP3 DUP3 PUSH2 0xD58 JUMP JUMPDEST SWAP2 SWAP1 POP JUMP JUMPDEST PUSH1 0x0 PUSH8 0xFFFFFFFFFFFFFFFF DUP3 GT ISZERO PUSH2 0xDBF JUMPI PUSH2 0xDBE PUSH2 0xD29 JUMP JUMPDEST JUMPDEST PUSH2 0xDC8 DUP3 PUSH2 0xBE6 JUMP JUMPDEST SWAP1 POP PUSH1 0x20 DUP2 ADD SWAP1 POP SWAP2 SWAP1 POP JUMP JUMPDEST DUP3 DUP2 DUP4 CALLDATACOPY PUSH1 0x0 DUP4 DUP4 ADD MSTORE POP POP POP JUMP JUMPDEST PUSH1 0x0 PUSH2 0xDF7 PUSH2 0xDF2 DUP5 PUSH2 0xDA4 JUMP JUMPDEST PUSH2 0xD89 JUMP JUMPDEST SWAP1 POP DUP3 DUP2 MSTORE PUSH1 0x20 DUP2 ADD DUP5 DUP5 DUP5 ADD GT ISZERO PUSH2 0xE13 JUMPI PUSH2 0xE12 PUSH2 0xD24 JUMP JUMPDEST JUMPDEST PUSH2 0xE1E DUP5 DUP3 DUP6 PUSH2 0xDD5 JUMP JUMPDEST POP SWAP4 SWAP3 POP POP POP JUMP JUMPDEST PUSH1 0x0 DUP3 PUSH1 0x1F DUP4 ADD SLT PUSH2 0xE3B JUMPI PUSH2 0xE3A PUSH2 0xD1F JUMP JUMPDEST JUMPDEST DUP2 CALLDATALOAD PUSH2 0xE4B DUP5 DUP3 PUSH1 0x20 DUP7 ADD PUSH2 0xDE4 JUMP JUMPDEST SWAP2 POP POP SWAP3 SWAP2 POP POP JUMP JUMPDEST PUSH1 0x0 DUP1 PUSH1 0x0 PUSH1 0x60 DUP5 DUP7 SUB SLT ISZERO PUSH2 0xE6D JUMPI PUSH2 0xE6C PUSH2 0xB09 JUMP JUMPDEST JUMPDEST PUSH1 0x0 DUP5 ADD CALLDATALOAD PUSH8 0xFFFFFFFFFFFFFFFF DUP2 GT ISZERO PUSH2 0xE8B JUMPI PUSH2 0xE8A PUSH2 0xB0E JUMP JUMPDEST JUMPDEST PUSH2 0xE97 DUP7 DUP3 DUP8 ADD PUSH2 0xE26 JUMP JUMPDEST SWAP4 POP POP PUSH1 0x20 DUP5 ADD CALLDATALOAD PUSH8 0xFFFFFFFFFFFFFFFF DUP2 GT ISZERO PUSH2 0xEB8 JUMPI PUSH2 0xEB7 PUSH2 0xB0E JUMP JUMPDEST JUMPDEST PUSH2 0xEC4 DUP7 DUP3 DUP8 ADD PUSH2 0xE26 JUMP JUMPDEST SWAP3 POP POP PUSH1 0x40 PUSH2 0xED5 DUP7 DUP3 DUP8 ADD PUSH2 0xB34 JUMP JUMPDEST SWAP2 POP POP SWAP3 POP SWAP3 POP SWAP3 JUMP JUMPDEST PUSH2 0xEE8 DUP2 PUSH2 0xC5F JUMP JUMPDEST DUP2 EQ PUSH2 0xEF3 JUMPI PUSH1 0x0 DUP1 REVERT JUMPDEST POP JUMP JUMPDEST PUSH1 0x0 DUP2 CALLDATALOAD SWAP1 POP PUSH2 0xF05 DUP2 PUSH2 0xEDF JUMP JUMPDEST SWAP3 SWAP2 POP POP JUMP JUMPDEST PUSH1 0x0 DUP1 PUSH1 0x40 DUP4 DUP6 SUB SLT ISZERO PUSH2 0xF22 JUMPI PUSH2 0xF21 PUSH2 0xB09 JUMP JUMPDEST JUMPDEST PUSH1 0x0 PUSH2 0xF30 DUP6 DUP3 DUP7 ADD PUSH2 0xB34 JUMP JUMPDEST SWAP3 POP POP PUSH1 0x20 PUSH2 0xF41 DUP6 DUP3 DUP7 ADD PUSH2 0xEF6 JUMP JUMPDEST SWAP2 POP POP SWAP3 POP SWAP3 SWAP1 POP JUMP JUMPDEST PUSH1 0x0 DUP3 DUP3 MSTORE PUSH1 0x20 DUP3 ADD SWAP1 POP SWAP3 SWAP2 POP POP JUMP JUMPDEST PUSH1 0x0 PUSH2 0xF67 DUP3 PUSH2 0xBA0 JUMP JUMPDEST PUSH2 0xF71 DUP2 DUP6 PUSH2 0xF4B JUMP JUMPDEST SWAP4 POP PUSH2 0xF81 DUP2 DUP6 PUSH1 0x20 DUP7 ADD PUSH2 0xBBC JUMP JUMPDEST PUSH2 0xF8A DUP2 PUSH2 0xBE6 JUMP JUMPDEST DUP5 ADD SWAP2 POP POP SWAP3 SWAP2 POP POP JUMP JUMPDEST PUSH2 0xF9E DUP2 PUSH2 0xC5F JUMP JUMPDEST DUP3 MSTORE POP POP JUMP JUMPDEST PUSH1 0x0 PUSH1 0xA0 DUP3 ADD SWAP1 POP DUP2 DUP2 SUB PUSH1 0x0 DUP4 ADD MSTORE PUSH2 0xFBE DUP2 DUP9 PUSH2 0xF5C JUMP JUMPDEST SWAP1 POP DUP2 DUP2 SUB PUSH1 0x20 DUP4 ADD MSTORE PUSH2 0xFD2 DUP2 DUP8 PUSH2 0xF5C JUMP JUMPDEST SWAP1 POP PUSH2 0xFE1 PUSH1 0x40 DUP4 ADD DUP7 PUSH2 0xB76 JUMP JUMPDEST PUSH2 0xFEE PUSH1 0x60 DUP4 ADD DUP6 PUSH2 0xB76 JUMP JUMPDEST PUSH2 0xFFB PUSH1 0x80 DUP4 ADD DUP5 PUSH2 0xF95 JUMP JUMPDEST SWAP7 SWAP6 POP POP POP POP POP POP JUMP JUMPDEST PUSH32 0x46756E6472616973657220646F6573206E6F7420657869737400000000000000 PUSH1 0x0 DUP3 ADD MSTORE POP JUMP JUMPDEST PUSH1 0x0 PUSH2 0x103B PUSH1 0x19 DUP4 PUSH2 0xF4B JUMP JUMPDEST SWAP2 POP PUSH2 0x1046 DUP3 PUSH2 0x1005 JUMP JUMPDEST PUSH1 0x20 DUP3 ADD SWAP1 POP SWAP2 SWAP1 POP JUMP JUMPDEST PUSH1 0x0 PUSH1 0x20 DUP3 ADD SWAP1 POP DUP2 DUP2 SUB PUSH1 0x0 DUP4 ADD MSTORE PUSH2 0x106A DUP2 PUSH2 0x102E JUMP JUMPDEST SWAP1 POP SWAP2 SWAP1 POP JUMP JUMPDEST PUSH32 0x4F6E6C792063726561746F722063616E2077697468647261772066756E647300 PUSH1 0x0 DUP3 ADD MSTORE POP JUMP JUMPDEST PUSH1 0x0 PUSH2 0x10A7 PUSH1 0x1F DUP4 PUSH2 0xF4B JUMP JUMPDEST SWAP2 POP PUSH2 0x10B2 DUP3 PUSH2 0x1071 JUMP JUMPDEST PUSH1 0x20 DUP3 ADD SWAP1 POP SWAP2 SWAP1 POP JUMP JUMPDEST PUSH1 0x0 PUSH1 0x20 DUP3 ADD SWAP1 POP DUP2 DUP2 SUB PUSH1 0x0 DUP4 ADD MSTORE PUSH2 0x10D6 DUP2 PUSH2 0x109A JUMP JUMPDEST SWAP1 POP SWAP2 SWAP1 POP JUMP JUMPDEST PUSH32 0x4E6F2066756E647320746F207769746864726177000000000000000000000000 PUSH1 0x0 DUP3 ADD MSTORE POP JUMP JUMPDEST PUSH1 0x0 PUSH2 0x1113 PUSH1 0x14 DUP4 PUSH2 0xF4B JUMP JUMPDEST SWAP2 POP PUSH2 0x111E DUP3 PUSH2 0x10DD JUMP JUMPDEST PUSH1 0x20 DUP3 ADD SWAP1 POP SWAP2 SWAP1 POP JUMP JUMPDEST PUSH1 0x0 PUSH1 0x20 DUP3 ADD SWAP1 POP DUP2 DUP2 SUB PUSH1 0x0 DUP4 ADD MSTORE PUSH2 0x1142 DUP2 PUSH2 0x1106 JUMP JUMPDEST SWAP1 POP SWAP2 SWAP1 POP JUMP JUMPDEST PUSH1 0x0 PUSH1 0x40 DUP3 ADD SWAP1 POP PUSH2 0x115E PUSH1 0x0 DUP4 ADD DUP6 PUSH2 0xB76 JUMP JUMPDEST PUSH2 0x116B PUSH1 0x20 DUP4 ADD DUP5 PUSH2 0xF95 JUMP JUMPDEST SWAP4 SWAP3 POP POP POP JUMP JUMPDEST PUSH32 0x4E487B7100000000000000000000000000000000000000000000000000000000 PUSH1 0x0 MSTORE PUSH1 0x22 PUSH1 0x4 MSTORE PUSH1 0x24 PUSH1 0x0 REVERT JUMPDEST PUSH1 0x0 PUSH1 0x2 DUP3 DIV SWAP1 POP PUSH1 0x1 DUP3 AND DUP1 PUSH2 0x11B9 JUMPI PUSH1 0x7F DUP3 AND SWAP2 POP JUMPDEST PUSH1 0x20 DUP3 LT DUP2 SUB PUSH2 0x11CC JUMPI PUSH2 0x11CB PUSH2 0x1172 JUMP JUMPDEST JUMPDEST POP SWAP2 SWAP1 POP JUMP JUMPDEST PUSH32 0x476F616C206D7573742062652067726561746572207468616E207A65726F0000 PUSH1 0x0 DUP3 ADD MSTORE POP JUMP JUMPDEST PUSH1 0x0 PUSH2 0x1208 PUSH1 0x1E DUP4 PUSH2 0xF4B JUMP JUMPDEST SWAP2 POP PUSH2 0x1213 DUP3 PUSH2 0x11D2 JUMP JUMPDEST PUSH1 0x20 DUP3 ADD SWAP1 POP SWAP2 SWAP1 POP JUMP JUMPDEST PUSH1 0x0 PUSH1 0x20 DUP3 ADD SWAP1 POP DUP2 DUP2 SUB PUSH1 0x0 DUP4 ADD MSTORE PUSH2 0x1237 DUP2 PUSH2 0x11FB JUMP JUMPDEST SWAP1 POP SWAP2 SWAP1 POP JUMP JUMPDEST PUSH1 0x0 DUP2 SWAP1 POP DUP2 PUSH1 0x0 MSTORE PUSH1 0x20 PUSH1 0x0 KECCAK256 SWAP1 POP SWAP2 SWAP1 POP JUMP JUMPDEST PUSH1 0x0 PUSH1 0x20 PUSH1 0x1F DUP4 ADD DIV SWAP1 POP SWAP2 SWAP1 POP JUMP JUMPDEST PUSH1 0x0 DUP3 DUP3 SHL SWAP1 POP SWAP3 SWAP2 POP POP JUMP JUMPDEST PUSH1 0x0 PUSH1 0x8 DUP4 MUL PUSH2 0x12A0 PUSH32 0xFFFFFFFFFFFFFFFFFFFFFFFFFFFFFFFFFFFFFFFFFFFFFFFFFFFFFFFFFFFFFFFF DUP3 PUSH2 0x1263 JUMP JUMPDEST PUSH2 0x12AA DUP7 DUP4 PUSH2 0x1263 JUMP JUMPDEST SWAP6 POP DUP1 NOT DUP5 AND SWAP4 POP DUP1 DUP7 AND DUP5 OR SWAP3 POP POP POP SWAP4 SWAP3 POP POP POP JUMP JUMPDEST PUSH1 0x0 DUP2 SWAP1 POP SWAP2 SWAP1 POP JUMP JUMPDEST PUSH1 0x0 PUSH2 0x12E7 PUSH2 0x12E2 PUSH2 0x12DD DUP5 PUSH2 0xB13 JUMP JUMPDEST PUSH2 0x12C2 JUMP JUMPDEST PUSH2 0xB13 JUMP JUMPDEST SWAP1 POP SWAP2 SWAP1 POP JUMP JUMPDEST PUSH1 0x0 DUP2 SWAP1 POP SWAP2 SWAP1 POP JUMP JUMPDEST PUSH2 0x1301 DUP4 PUSH2 0x12CC JUMP JUMPDEST PUSH2 0x1315 PUSH2 0x130D DUP3 PUSH2 0x12EE JUMP JUMPDEST DUP5 DUP5 SLOAD PUSH2 0x1270 JUMP JUMPDEST DUP3 SSTORE POP POP POP POP JUMP JUMPDEST PUSH1 0x0 SWAP1 JUMP JUMPDEST PUSH2 0x132A PUSH2 0x131D JUMP JUMPDEST PUSH2 0x1335 DUP2 DUP5 DUP5 PUSH2 0x12F8 JUMP JUMPDEST POP POP POP JUMP JUMPDEST JUMPDEST DUP2 DUP2 LT ISZERO PUSH2 0x1359 JUMPI PUSH2 0x134E PUSH1 0x0 DUP3 PUSH2 0x1322 JUMP JUMPDEST PUSH1 0x1 DUP2 ADD SWAP1 POP PUSH2 0x133B JUMP JUMPDEST POP POP JUMP JUMPDEST PUSH1 0x1F DUP3 GT ISZERO PUSH2 0x139E JUMPI PUSH2 0x136F DUP2 PUSH2 0x123E JUMP JUMPDEST PUSH2 0x1378 DUP5 PUSH2 0x1253 JUMP JUMPDEST DUP2 ADD PUSH1 0x20 DUP6 LT ISZERO PUSH2 0x1387 JUMPI DUP2 SWAP1 POP JUMPDEST PUSH2 0x139B PUSH2 0x1393 DUP6 PUSH2 0x1253 JUMP JUMPDEST DUP4 ADD DUP3 PUSH2 0x133A JUMP JUMPDEST POP POP JUMPDEST POP POP POP JUMP JUMPDEST PUSH1 0x0 DUP3 DUP3 SHR SWAP1 POP SWAP3 SWAP2 POP POP JUMP JUMPDEST PUSH1 0x0 PUSH2 0x13C1 PUSH1 0x0 NOT DUP5 PUSH1 0x8 MUL PUSH2 0x13A3 JUMP JUMPDEST NOT DUP1 DUP4 AND SWAP2 POP POP SWAP3 SWAP2 POP POP JUMP JUMPDEST PUSH1 0x0 PUSH2 0x13DA DUP4 DUP4 PUSH2 0x13B0 JUMP JUMPDEST SWAP2 POP DUP3 PUSH1 0x2 MUL DUP3 OR SWAP1 POP SWAP3 SWAP2 POP POP JUMP JUMPDEST PUSH2 0x13F3 DUP3 PUSH2 0xBA0 JUMP JUMPDEST PUSH8 0xFFFFFFFFFFFFFFFF DUP2 GT ISZERO PUSH2 0x140C JUMPI PUSH2 0x140B PUSH2 0xD29 JUMP JUMPDEST JUMPDEST PUSH2 0x1416 DUP3 SLOAD PUSH2 0x11A1 JUMP JUMPDEST PUSH2 0x1421 DUP3 DUP3 DUP6 PUSH2 0x135D JUMP JUMPDEST PUSH1 0x0 PUSH1 0x20 SWAP1 POP PUSH1 0x1F DUP4 GT PUSH1 0x1 DUP2 EQ PUSH2 0x1454 JUMPI PUSH1 0x0 DUP5 ISZERO PUSH2 0x1442 JUMPI DUP3 DUP8 ADD MLOAD SWAP1 POP JUMPDEST PUSH2 0x144C DUP6 DUP3 PUSH2 0x13CE JUMP JUMPDEST DUP7 SSTORE POP PUSH2 0x14B4 JUMP JUMPDEST PUSH1 0x1F NOT DUP5 AND PUSH2 0x1462 DUP7 PUSH2 0x123E JUMP JUMPDEST PUSH1 0x0 JUMPDEST DUP3 DUP2 LT ISZERO PUSH2 0x148A JUMPI DUP5 DUP10 ADD MLOAD DUP3 SSTORE PUSH1 0x1 DUP3 ADD SWAP2 POP PUSH1 0x20 DUP6 ADD SWAP5 POP PUSH1 0x20 DUP2 ADD SWAP1 POP PUSH2 0x1465 JUMP JUMPDEST DUP7 DUP4 LT ISZERO PUSH2 0x14A7 JUMPI DUP5 DUP10 ADD MLOAD PUSH2 0x14A3 PUSH1 0x1F DUP10 AND DUP3 PUSH2 0x13B0 JUMP JUMPDEST DUP4 SSTORE POP JUMPDEST PUSH1 0x1 PUSH1 0x2 DUP9 MUL ADD DUP9 SSTORE POP POP POP JUMPDEST POP POP POP POP POP POP JUMP JUMPDEST PUSH1 0x0 PUSH1 0x60 DUP3 ADD SWAP1 POP DUP2 DUP2 SUB PUSH1 0x0 DUP4 ADD MSTORE PUSH2 0x14D6 DUP2 DUP7 PUSH2 0xF5C JUMP JUMPDEST SWAP1 POP PUSH2 0x14E5 PUSH1 0x20 DUP4 ADD DUP6 PUSH2 0xB76 JUMP JUMPDEST PUSH2 0x14F2 PUSH1 0x40 DUP4 ADD DUP5 PUSH2 0xF95 JUMP JUMPDEST SWAP5 SWAP4 POP POP POP POP JUMP JUMPDEST PUSH32 0x4E487B7100000000000000000000000000000000000000000000000000000000 PUSH1 0x0 MSTORE PUSH1 0x11 PUSH1 0x4 MSTORE PUSH1 0x24 PUSH1 0x0 REVERT JUMPDEST PUSH1 0x0 PUSH2 0x1534 DUP3 PUSH2 0xB13 JUMP JUMPDEST SWAP2 POP PUSH32 0xFFFFFFFFFFFFFFFFFFFFFFFFFFFFFFFFFFFFFFFFFFFFFFFFFFFFFFFFFFFFFFFF DUP3 SUB PUSH2 0x1566 JUMPI PUSH2 0x1565 PUSH2 0x14FA JUMP JUMPDEST JUMPDEST PUSH1 0x1 DUP3 ADD SWAP1 POP SWAP2 SWAP1 POP JUMP JUMPDEST PUSH32 0x446F6E6174696F6E206D7573742062652067726561746572207468616E207A65 PUSH1 0x0 DUP3 ADD MSTORE PUSH32 0x726F000000000000000000000000000000000000000000000000000000000000 PUSH1 0x20 DUP3 ADD MSTORE POP JUMP JUMPDEST PUSH1 0x0 PUSH2 0x15CD PUSH1 0x22 DUP4 PUSH2 0xF4B JUMP JUMPDEST SWAP2 POP PUSH2 0x15D8 DUP3 PUSH2 0x1571 JUMP JUMPDEST PUSH1 0x40 DUP3 ADD SWAP1 POP SWAP2 SWAP1 POP JUMP JUMPDEST PUSH1 0x0 PUSH1 0x20 DUP3 ADD SWAP1 POP DUP2 DUP2 SUB PUSH1 0x0 DUP4 ADD MSTORE PUSH2 0x15FC DUP2 PUSH2 0x15C0 JUMP JUMPDEST SWAP1 POP SWAP2 SWAP1 POP JUMP JUMPDEST PUSH1 0x0 PUSH2 0x160E DUP3 PUSH2 0xB13 JUMP JUMPDEST SWAP2 POP PUSH2 0x1619 DUP4 PUSH2 0xB13 JUMP JUMPDEST SWAP3 POP DUP3 DUP3 ADD SWAP1 POP DUP1 DUP3 GT ISZERO PUSH2 0x1631 JUMPI PUSH2 0x1630 PUSH2 0x14FA JUMP JUMPDEST JUMPDEST SWAP3 SWAP2 POP POP JUMP JUMPDEST PUSH1 0x0 PUSH1 0x40 DUP3 ADD SWAP1 POP PUSH2 0x164C PUSH1 0x0 DUP4 ADD DUP6 PUSH2 0xF95 JUMP JUMPDEST PUSH2 0x1659 PUSH1 0x20 DUP4 ADD DUP5 PUSH2 0xB76 JUMP JUMPDEST SWAP4 SWAP3 POP POP POP JUMP JUMPDEST PUSH32 0x5265656E7472616E637947756172643A207265656E7472616E742063616C6C00 PUSH1 0x0 DUP3 ADD MSTORE POP JUMP JUMPDEST PUSH1 0x0 PUSH2 0x1696 PUSH1 0x1F DUP4 PUSH2 0xF4B JUMP JUMPDEST SWAP2 POP PUSH2 0x16A1 DUP3 PUSH2 0x1660 JUMP JUMPDEST PUSH1 0x20 DUP3 ADD SWAP1 POP SWAP2 SWAP1 POP JUMP JUMPDEST PUSH1 0x0 PUSH1 0x20 DUP3 ADD SWAP1 POP DUP2 DUP2 SUB PUSH1 0x0 DUP4 ADD MSTORE PUSH2 0x16C5 DUP2 PUSH2 0x1689 JUMP JUMPDEST SWAP1 POP SWAP2 SWAP1 POP JUMP INVALID LOG2 PUSH5 0x6970667358 0x22 SLT KECCAK256 ORIGIN 0xDF SIGNEXTEND PUSH30 0xFA20C94F71B594AF5F8CABBF2B4FF58D67187C7E0DB51982BBB0C3256473 PUSH16 0x6C634300081400330000000000000000 "},"methodIdentifiers":{"createFundraiser(string,string,uint256)":"c50870b1","donate(uint256)":"f14faf6f","donations(uint256,address)":"ee1554a3","fundraiserCount()":"37cd0940","fundraisers(uint256)":"f38f72fb","getFundraiser(uint256)":"a8200098","withdrawFunds(uint256)":"155dd5ee"}}}}}