{
  "_format": "hh-sol-artifact-1",
  "contractName": "EduFund",
  "sourceName": "contracts/EduFund.sol",
  "abi": [
    {
      "anonymous": false,
      "inputs": [
        {
          "indexed": false,
          "internalType": "uint256",
          "name": "fundraiserId",
          "type": "uint256"
        },
        {
          "indexed": true,
          "internalType": "address",
          "name": "donor",
          "type": "address"
        },
        {
          "indexed": false,
          "internalType": "uint256",
          "name": "amount",
          "type": "uint256"
        }
      ],
      "name": "DonationReceived",
      "type": "event"
    },
    {
      "anonymous": false,
      "inputs": [
        {
          "indexed": false,
          "internalType": "uint256",
          "name": "fundraiserId",
          "type": "uint256"
        },
        {
          "indexed": false,
          "internalType": "string",
          "name": "name",
          "type": "string"
        },
        {
          "indexed": false,
          "internalType": "uint256",
          "name": "goal",
          "type": "uint256"
        },
        {
          "indexed": true,
          "internalType": "address",
          "name": "creator",
          "type": "address"
        },
        {
          "indexed": true,
          "internalType": "address",
          "name": "beneficiary",
          "type": "address"
        }
      ],
      "name": "FundraiserCreated",
      "type": "event"
    },
    {
      "anonymous": false,
      "inputs": [
        {
          "indexed": false,
          "internalType": "uint256",
          "name": "fundraiserId",
          "type": "uint256"
        },
        {
          "indexed": false,
          "internalType": "uint256",
          "name": "amount",
          "type": "uint256"
        },
        {
          "indexed": true,
          "internalType": "address",
          "name": "beneficiary",
          "type": "address"
        }
      ],
      "name": "FundsWithdrawn",
      "type": "event"
    },
    {
      "inputs": [
        {
          "internalType": "string",
          "name": "_name",
          "type": "string"
        },
        {
          "internalType": "string",
          "name": "_description",
          "type": "string"
        },
        {
          "internalType": "uint256",
          "name": "_goal",
          "type": "uint256"
        },
        {
          "internalType": "address",
          "name": "_beneficiary",
          "type": "address"
        }
      ],
      "name": "createFundraiser",
      "outputs": [],
      "stateMutability": "nonpayable",
      "type": "function"
    },
    {
      "inputs": [
        {
          "internalType": "uint256",
          "name": "fundraiserId",
          "type": "uint256"
        }
      ],
      "name": "donate",
      "outputs": [],
      "stateMutability": "payable",
      "type": "function"
    },
    {
      "inputs": [],
      "name": "fundraiserCount",
      "outputs": [
        {
          "internalType": "uint256",
          "name": "",
          "type": "uint256"
        }
      ],
      "stateMutability": "view",
      "type": "function"
    },
    {
      "inputs": [
        {
          "internalType": "uint256",
          "name": "",
          "type": "uint256"
        }
      ],
      "name": "fundraisers",
      "outputs": [
        {
          "internalType": "string",
          "name": "name",
          "type": "string"
        },
        {
          "internalType": "string",
          "name": "description",
          "type": "string"
        },
        {
          "internalType": "uint256",
          "name": "goal",
          "type": "uint256"
        },
        {
          "internalType": "uint256",
          "name": "amountRaised",
          "type": "uint256"
        },
        {
          "internalType": "address",
          "name": "creator",
          "type": "address"
        },
        {
          "internalType": "address",
          "name": "beneficiary",
          "type": "address"
        },
        {
          "internalType": "bool",
          "name": "isClosed",
          "type": "bool"
        }
      ],
      "stateMutability": "view",
      "type": "function"
    },
    {
      "inputs": [],
      "name": "getContractBalance",
      "outputs": [
        {
          "internalType": "uint256",
          "name": "",
          "type": "uint256"
        }
      ],
      "stateMutability": "view",
      "type": "function"
    },
    {
      "inputs": [
        {
          "internalType": "uint256",
          "name": "fundraiserId",
          "type": "uint256"
        }
      ],
      "name": "getFundraiser",
      "outputs": [
        {
          "components": [
            {
              "internalType": "string",
              "name": "name",
              "type": "string"
            },
            {
              "internalType": "string",
              "name": "description",
              "type": "string"
            },
            {
              "internalType": "uint256",
              "name": "goal",
              "type": "uint256"
            },
            {
              "internalType": "uint256",
              "name": "amountRaised",
              "type": "uint256"
            },
            {
              "internalType": "address",
              "name": "creator",
              "type": "address"
            },
            {
              "internalType": "address",
              "name": "beneficiary",
              "type": "address"
            },
            {
              "internalType": "bool",
              "name": "isClosed",
              "type": "bool"
            }
          ],
          "internalType": "struct EduFund.Fundraiser",
          "name": "",
          "type": "tuple"
        }
      ],
      "stateMutability": "view",
      "type": "function"
    },
    {
      "inputs": [
        {
          "internalType": "uint256",
          "name": "fundraiserId",
          "type": "uint256"
        }
      ],
      "name": "withdrawFunds",
      "outputs": [],
      "stateMutability": "nonpayable",
      "type": "function"
    }
  ],
  "bytecode": "0x608060405234801561001057600080fd5b506001600081905550611b94806100286000396000f3fe6080604052600436106100705760003560e01c806389f526411161004e57806389f52641146100f4578063a82000981461011d578063f14faf6f1461015a578063f38f72fb1461017657610070565b8063155dd5ee1461007557806337cd09401461009e5780636f9fb98a146100c9575b600080fd5b34801561008157600080fd5b5061009c60048036038101906100979190610e14565b6101b9565b005b3480156100aa57600080fd5b506100b36104ca565b6040516100c09190610e50565b60405180910390f35b3480156100d557600080fd5b506100de6104d0565b6040516100eb9190610e50565b60405180910390f35b34801561010057600080fd5b5061011b6004803603810190610116919061100f565b6104d8565b005b34801561012957600080fd5b50610144600480360381019061013f9190610e14565b61077c565b6040516101519190611209565b60405180910390f35b610174600480360381019061016f9190610e14565b6109ec565b005b34801561018257600080fd5b5061019d60048036038101906101989190610e14565b610b67565b6040516101b09796959493929190611293565b60405180910390f35b6101c1610d06565b6000600160008381526020019081526020016000209050600073ffffffffffffffffffffffffffffffffffffffff168160040160009054906101000a900473ffffffffffffffffffffffffffffffffffffffff1673ffffffffffffffffffffffffffffffffffffffff160361026b576040517f08c379a00000000000000000000000000000000000000000000000000000000081526004016102629061135c565b60405180910390fd5b8060050160009054906101000a900473ffffffffffffffffffffffffffffffffffffffff1673ffffffffffffffffffffffffffffffffffffffff163373ffffffffffffffffffffffffffffffffffffffff16146102fd576040517f08c379a00000000000000000000000000000000000000000000000000000000081526004016102f4906113ee565b60405180910390fd5b806002015481600301541015610348576040517f08c379a000000000000000000000000000000000000000000000000000000000815260040161033f9061145a565b60405180910390fd5b6000816003015490506000826003018190555060018260050160146101000a81548160ff02191690831515021790555060008260050160009054906101000a900473ffffffffffffffffffffffffffffffffffffffff1673ffffffffffffffffffffffffffffffffffffffff16826040516103c2906114ab565b60006040518083038185875af1925050503d80600081146103ff576040519150601f19603f3d011682016040523d82523d6000602084013e610404565b606091505b5050905080610448576040517f08c379a000000000000000000000000000000000000000000000000000000000815260040161043f9061150c565b60405180910390fd5b8260050160009054906101000a900473ffffffffffffffffffffffffffffffffffffffff1673ffffffffffffffffffffffffffffffffffffffff167ff3b5906e5672f3e524854103bcafbbdba80dbdfeca2c35e116127b1060a6831885846040516104b492919061152c565b60405180910390a25050506104c7610d55565b50565b60025481565b600047905090565b6000821161051b576040517f08c379a0000000000000000000000000000000000000000000000000000000008152600401610512906115a1565b60405180910390fd5b600073ffffffffffffffffffffffffffffffffffffffff168173ffffffffffffffffffffffffffffffffffffffff160361058a576040517f08c379a00000000000000000000000000000000000000000000000000000000081526004016105819061160d565b60405180910390fd5b6040518060e00160405280858152602001848152602001838152602001600081526020013373ffffffffffffffffffffffffffffffffffffffff1681526020018273ffffffffffffffffffffffffffffffffffffffff1681526020016000151581525060016000600254815260200190815260200160002060008201518160000190816106179190611839565b50602082015181600101908161062d9190611839565b50604082015181600201556060820151816003015560808201518160040160006101000a81548173ffffffffffffffffffffffffffffffffffffffff021916908373ffffffffffffffffffffffffffffffffffffffff16021790555060a08201518160050160006101000a81548173ffffffffffffffffffffffffffffffffffffffff021916908373ffffffffffffffffffffffffffffffffffffffff16021790555060c08201518160050160146101000a81548160ff0219169083151502179055509050508073ffffffffffffffffffffffffffffffffffffffff163373ffffffffffffffffffffffffffffffffffffffff167ffb488a83718f074929f513027d7df1d4c09b895d3b4ef51b57f31b1e75c77ede60025487866040516107569392919061190b565b60405180910390a36002600081548092919061077190611978565b919050555050505050565b610784610d5f565b60025482106107c8576040517f08c379a00000000000000000000000000000000000000000000000000000000081526004016107bf9061135c565b60405180910390fd5b600160008381526020019081526020016000206040518060e00160405290816000820180546107f69061165c565b80601f01602080910402602001604051908101604052809291908181526020018280546108229061165c565b801561086f5780601f106108445761010080835404028352916020019161086f565b820191906000526020600020905b81548152906001019060200180831161085257829003601f168201915b505050505081526020016001820180546108889061165c565b80601f01602080910402602001604051908101604052809291908181526020018280546108b49061165c565b80156109015780601f106108d657610100808354040283529160200191610901565b820191906000526020600020905b8154815290600101906020018083116108e457829003601f168201915b5050505050815260200160028201548152602001600382015481526020016004820160009054906101000a900473ffffffffffffffffffffffffffffffffffffffff1673ffffffffffffffffffffffffffffffffffffffff1673ffffffffffffffffffffffffffffffffffffffff1681526020016005820160009054906101000a900473ffffffffffffffffffffffffffffffffffffffff1673ffffffffffffffffffffffffffffffffffffffff1673ffffffffffffffffffffffffffffffffffffffff1681526020016005820160149054906101000a900460ff1615151515815250509050919050565b6109f4610d06565b6002548110610a38576040517f08c379a0000000000000000000000000000000000000000000000000000000008152600401610a2f9061135c565b60405180910390fd5b60003411610a7b576040517f08c379a0000000000000000000000000000000000000000000000000000000008152600401610a7290611a32565b60405180910390fd5b6001600082815260200190815260200160002060050160149054906101000a900460ff1615610adf576040517f08c379a0000000000000000000000000000000000000000000000000000000008152600401610ad690611a9e565b60405180910390fd5b34600160008381526020019081526020016000206003016000828254610b059190611abe565b925050819055503373ffffffffffffffffffffffffffffffffffffffff167f0b5b4c52969ff7329ecf7ee536409fda87812b15a8622bc6e8cdeab3aee14a268234604051610b5492919061152c565b60405180910390a2610b64610d55565b50565b6001602052806000526040600020600091509050806000018054610b8a9061165c565b80601f0160208091040260200160405190810160405280929190818152602001828054610bb69061165c565b8015610c035780601f10610bd857610100808354040283529160200191610c03565b820191906000526020600020905b815481529060010190602001808311610be657829003601f168201915b505050505090806001018054610c189061165c565b80601f0160208091040260200160405190810160405280929190818152602001828054610c449061165c565b8015610c915780601f10610c6657610100808354040283529160200191610c91565b820191906000526020600020905b815481529060010190602001808311610c7457829003601f168201915b5050505050908060020154908060030154908060040160009054906101000a900473ffffffffffffffffffffffffffffffffffffffff16908060050160009054906101000a900473ffffffffffffffffffffffffffffffffffffffff16908060050160149054906101000a900460ff16905087565b600260005403610d4b576040517f08c379a0000000000000000000000000000000000000000000000000000000008152600401610d4290611b3e565b60405180910390fd5b6002600081905550565b6001600081905550565b6040518060e0016040528060608152602001606081526020016000815260200160008152602001600073ffffffffffffffffffffffffffffffffffffffff168152602001600073ffffffffffffffffffffffffffffffffffffffff1681526020016000151581525090565b6000604051905090565b600080fd5b600080fd5b6000819050919050565b610df181610dde565b8114610dfc57600080fd5b50565b600081359050610e0e81610de8565b92915050565b600060208284031215610e2a57610e29610dd4565b5b6000610e3884828501610dff565b91505092915050565b610e4a81610dde565b82525050565b6000602082019050610e656000830184610e41565b92915050565b600080fd5b600080fd5b6000601f19601f8301169050919050565b7f4e487b7100000000000000000000000000000000000000000000000000000000600052604160045260246000fd5b610ebe82610e75565b810181811067ffffffffffffffff82111715610edd57610edc610e86565b5b80604052505050565b6000610ef0610dca565b9050610efc8282610eb5565b919050565b600067ffffffffffffffff821115610f1c57610f1b610e86565b5b610f2582610e75565b9050602081019050919050565b82818337600083830152505050565b6000610f54610f4f84610f01565b610ee6565b905082815260208101848484011115610f7057610f6f610e70565b5b610f7b848285610f32565b509392505050565b600082601f830112610f9857610f97610e6b565b5b8135610fa8848260208601610f41565b91505092915050565b600073ffffffffffffffffffffffffffffffffffffffff82169050919050565b6000610fdc82610fb1565b9050919050565b610fec81610fd1565b8114610ff757600080fd5b50565b60008135905061100981610fe3565b92915050565b6000806000806080858703121561102957611028610dd4565b5b600085013567ffffffffffffffff81111561104757611046610dd9565b5b61105387828801610f83565b945050602085013567ffffffffffffffff81111561107457611073610dd9565b5b61108087828801610f83565b935050604061109187828801610dff565b92505060606110a287828801610ffa565b91505092959194509250565b600081519050919050565b600082825260208201905092915050565b60005b838110156110e85780820151818401526020810190506110cd565b60008484015250505050565b60006110ff826110ae565b61110981856110b9565b93506111198185602086016110ca565b61112281610e75565b840191505092915050565b61113681610dde565b82525050565b61114581610fd1565b82525050565b60008115159050919050565b6111608161114b565b82525050565b600060e083016000830151848203600086015261118382826110f4565b9150506020830151848203602086015261119d82826110f4565b91505060408301516111b2604086018261112d565b5060608301516111c5606086018261112d565b5060808301516111d8608086018261113c565b5060a08301516111eb60a086018261113c565b5060c08301516111fe60c0860182611157565b508091505092915050565b600060208201905081810360008301526112238184611166565b905092915050565b600082825260208201905092915050565b6000611247826110ae565b611251818561122b565b93506112618185602086016110ca565b61126a81610e75565b840191505092915050565b61127e81610fd1565b82525050565b61128d8161114b565b82525050565b600060e08201905081810360008301526112ad818a61123c565b905081810360208301526112c1818961123c565b90506112d06040830188610e41565b6112dd6060830187610e41565b6112ea6080830186611275565b6112f760a0830185611275565b61130460c0830184611284565b98975050505050505050565b7f46756e6472616973657220646f6573206e6f7420657869737400000000000000600082015250565b600061134660198361122b565b915061135182611310565b602082019050919050565b6000602082019050818103600083015261137581611339565b9050919050565b7f4f6e6c79207468652062656e65666963696172792063616e207769746864726160008201527f7700000000000000000000000000000000000000000000000000000000000000602082015250565b60006113d860218361122b565b91506113e38261137c565b604082019050919050565b60006020820190508181036000830152611407816113cb565b9050919050565b7f476f616c206e6f74206d65742079657400000000000000000000000000000000600082015250565b600061144460108361122b565b915061144f8261140e565b602082019050919050565b6000602082019050818103600083015261147381611437565b9050919050565b600081905092915050565b50565b600061149560008361147a565b91506114a082611485565b600082019050919050565b60006114b682611488565b9150819050919050565b7f5472616e73666572206661696c65640000000000000000000000000000000000600082015250565b60006114f6600f8361122b565b9150611501826114c0565b602082019050919050565b60006020820190508181036000830152611525816114e9565b9050919050565b60006040820190506115416000830185610e41565b61154e6020830184610e41565b9392505050565b7f476f616c206d7573742062652067726561746572207468616e207a65726f0000600082015250565b600061158b601e8361122b565b915061159682611555565b602082019050919050565b600060208201905081810360008301526115ba8161157e565b9050919050565b7f496e76616c69642062656e656669636961727920616464726573730000000000600082015250565b60006115f7601b8361122b565b9150611602826115c1565b602082019050919050565b60006020820190508181036000830152611626816115ea565b9050919050565b7f4e487b7100000000000000000000000000000000000000000000000000000000600052602260045260246000fd5b6000600282049050600182168061167457607f821691505b6020821081036116875761168661162d565b5b50919050565b60008190508160005260206000209050919050565b60006020601f8301049050919050565b600082821b905092915050565b6000600883026116ef7fffffffffffffffffffffffffffffffffffffffffffffffffffffffffffffffff826116b2565b6116f986836116b2565b95508019841693508086168417925050509392505050565b6000819050919050565b600061173661173161172c84610dde565b611711565b610dde565b9050919050565b6000819050919050565b6117508361171b565b61176461175c8261173d565b8484546116bf565b825550505050565b600090565b61177961176c565b611784818484611747565b505050565b5b818110156117a85761179d600082611771565b60018101905061178a565b5050565b601f8211156117ed576117be8161168d565b6117c7846116a2565b810160208510156117d6578190505b6117ea6117e2856116a2565b830182611789565b50505b505050565b600082821c905092915050565b6000611810600019846008026117f2565b1980831691505092915050565b600061182983836117ff565b9150826002028217905092915050565b611842826110ae565b67ffffffffffffffff81111561185b5761185a610e86565b5b611865825461165c565b6118708282856117ac565b600060209050601f8311600181146118a35760008415611891578287015190505b61189b858261181d565b865550611903565b601f1984166118b18661168d565b60005b828110156118d9578489015182556001820191506020850194506020810190506118b4565b868310156118f657848901516118f2601f8916826117ff565b8355505b6001600288020188555050505b505050505050565b60006060820190506119206000830186610e41565b8181036020830152611932818561123c565b90506119416040830184610e41565b949350505050565b7f4e487b7100000000000000000000000000000000000000000000000000000000600052601160045260246000fd5b600061198382610dde565b91507fffffffffffffffffffffffffffffffffffffffffffffffffffffffffffffffff82036119b5576119b4611949565b5b600182019050919050565b7f446f6e6174696f6e206d7573742062652067726561746572207468616e207a6560008201527f726f000000000000000000000000000000000000000000000000000000000000602082015250565b6000611a1c60228361122b565b9150611a27826119c0565b604082019050919050565b60006020820190508181036000830152611a4b81611a0f565b9050919050565b7f46756e6472616973657220697320636c6f736564000000000000000000000000600082015250565b6000611a8860148361122b565b9150611a9382611a52565b602082019050919050565b60006020820190508181036000830152611ab781611a7b565b9050919050565b6000611ac982610dde565b9150611ad483610dde565b9250828201905080821115611aec57611aeb611949565b5b92915050565b7f5265656e7472616e637947756172643a207265656e7472616e742063616c6c00600082015250565b6000611b28601f8361122b565b9150611b3382611af2565b602082019050919050565b60006020820190508181036000830152611b5781611b1b565b905091905056fea2646970667358221220f57cb0f3b8f6ce0efa359bd4ff0d30e6e3d2c54636e915d9a4b694fb1203e90e64736f6c63430008140033",
  "linkReferences": {},
  "deployedLinkReferences": {}
}